:020000040800F2
:1010000000500020251E0008231E0008211E000895
:10101000211E0008211E0008211E000800000000FB
:10102000000000000000000000000000231E000877
:10103000231E000800000000231E0008231E0008D5
:10104000211E0008211E0008211E0008211E000884
:10105000211E0008211E0008211E0008211E000874
:10106000211E0008211E0008211E0008211E000864
:10107000211E0008211E0008211E0008211E000854
:10108000211E0008211E0008211E0008AD140008C2
:10109000F9140008211E0008211E0008211E000866
:1010A000211E0008211E0008211E0008211E000824
:1010B000211E0008211E000875110008211E0008CD
:1010C000211E0008211E0008211E0008211E000804
:1010D000211E0008211E0008211E0008211E0008F4
:1010E000211E0008211E0008211E0008211E0008E4
:1010F000211E0008211E0008211E0008211E0008D4
:10110000211E0008211E0008211E0008211E0008C3
:10111000211E0008211E0008211E0008211E0008B3
:10112000211E0008211E0008211E0008211E0008A3
:10113000211E0008211E0008211E0008211E000893
:10114000211E0008211E0008211E0008211E000883
:101150007047000008B54FF40051044800F0ECFC63
:1011600000F0F4FCBDE8084000F052B90010014066
:1011700070470000014B186800F0E8B80C00002030
:1011800000B595B000F092FC40F2823000F020FEF5
:101190004FF4207000F01CFE4FF4407000F018FE79
:1011A00040F2993000F014FE1E2000F085FE40F25F
:1011B000023000F00DFE40F2033000F009FE4FF463
:1011C000417000F005FE03224FF4007311462C48D5
:1011D00000F079FB4FF4807301220021284800F0D1
:1011E00072FB4FF480414FF0806000F09DFB25487A
:1011F00000F0E4F94FF4001309220024CDE9053290
:101200004FF4403322462146CDE90343CDE907445C
:101210000123CDE9014400941A4800F0DBF91420C1
:1012200000F04AFEF021142000F054FE132000F0DC
:1012300043FEF021132000F04DFE22464FF40053F0
:101240000AAC0221104800F03EFB00F08BF90F4978
:10125000204600F027F80E4B64220E4920461C6001
:1012600000F044F84FF47A720B49204600F03EF843
:1012700042F210720949204600F038F8FEE700BF3C
:10128000000C0140006400400010014000080040D4
:101290000C000020511100087111000855110008C0
:1012A0007047000038B504460D462162084600F03C
:1012B00062FC284600F064FC284640F2CF2100F092
:1012C0006EFC28464FF6FF7100F06BFC064B204683
:1012D000C4E90033C4E902334FF0FF33C4E90433F7
:1012E0000023636238BD00BFA1120008F8B5436A4D
:1012F0000446032B0F46164625DC006A00F04AFC24
:10130000114D636A0122E95C206A00F04CFC636ABB
:101310000022E95C206A00F00CFD0221636A206A69
:1013200003F1080244F82370994024F8126000F099
:1013300015FC0021206A00F00EFD206A00F025FC5B
:10134000636A01336362F8BDF41E00082DE9F041C1
:1013500005460024022707FA04F84146286A00F0EF
:1013600001FCD8B1286A00F0F4FC41460646286A20
:1013700000F0FEFB2B6A05EB4408343353F82410CD
:10138000B8F810200A4443F8242055F82430984730
:10139000286A00F0DEFC801BA8F818000134042C39
:1013A000D9D1BDE8F081000073B506460C4615485A
:1013B000012100F0A8F9082300930023314601948D
:1013C0001A46104800F0A4F900280F490DDA0B68FE
:1013D0000E2B0ADC0C225A430C4D0133A818AE52D6
:1013E00022680B604260626882600B68002B06DD39
:1013F0000121044802B0BDE8704000F080B902B09D
:1014000070BD00BF00640040C40000201000002038
:10141000002200B5224B8DB0CDE90032214B198856
:10142000152988BF1A801A88A2F10801062935D922
:101430000F2A34BF1121D92101321A8019238DF8C6
:101440000930C5238DF80A300023009A8DF8081062
:101450000692019A8DF80B300792029A8DF80C30A3
:101460008DF80D308DF80E308DF80F300892039AFC
:1014700006A9CDE909230C4B40F216300B93FFF778
:1014800093FF08A940F22930FFF78EFF0AA940F226
:101490004550FFF789FF0DB05DF804FB8621CBE7CF
:1014A0000500C012C80000207E10001807B50F49C3
:1014B0000A68002A12DD0C23013A53430C480A60E3
:1014C000C15A0433034401930823009300230948BD
:1014D0001A4600F01DF903B05DF804FB0121054830
:1014E00003B05DF804EB00F00EB900BFC4000020AB
:1014F00010000020006400402DE9F0434FF0000987
:10150000DFF85C808BB006AB08AF0DF11A060DF169
:101510001B050DF119040093CDF814900497039660
:101520000295019407AB01220021404600F067F9C3
:101530000028E8D18046DFF82890012206AB00930E
:10154000CDE90478CDE90256019407AB114648462F
:1015500000F055F90028F0D10BB0BDE8F08300BFD2
:101560000064004010B5134C4FF480630222032145
:10157000114800F0A8F920464FF4E13100F0EEFBED
:101580002046082100F0FEFB20464FF4005100F0F9
:1015900002FC20460C2100F00AFC2046002100F04D
:1015A00000FC2046002100F008FC2046BDE8104069
:1015B00000F009BC00480040000C0140044B984278
:1015C0000CBF40F2192040F21A2000F00EBC00BF00
:1015D000006400402DE9F34104689DF8208024F068
:1015E0000204046004689DF824E044F001040460EF
:1015F0004FF6FF749DF828C09DF83C609DF8407040
:101600000194019C051D013C019414B14468E40758
:10161000F7D52C68E40770D50024C461002951D0A7
:10162000016841F080010160002A4FD0026842F059
:1016300040020260002B4DD0036843F0200303609A
:101640000368B8F1000F49D043F01003036003684A
:10165000BEF1000F45D043F0080303600368BCF1FE
:10166000000F41D043F004030360C369002F3ED054
:1016700043F00043C361C369002E3BD043F0804375
:10168000C3610E9B0D99013BC3F309030B430C99F6
:10169000C2690B430B990B431343C361036823F0E7
:1016A000010303604FF6FF730193019B013B01931C
:1016B00013B12B68DB07F8D4286800F0010002B0F2
:1016C000BDE8F081016821F08001ACE7026822F0FA
:1016D0004002AEE7036823F02003B0E723F01003D5
:1016E000B4E723F00803B8E723F00403BCE723F0D2
:1016F0000043BFE723F08043C2E70120DFE74369EF
:10170000194341617047436923EA01014161704710
:101710002DE9F041804680689DF818E04601079D5C
:101720002AD4D8F8080004012AD4D8F80800C00048
:1017300050D54FF4D076022006EB080422B3C9003E
:1017400041F0040146F808101BB1236843F002037E
:101750002360636823F00F03636062680EF00F0379
:10176000134363600EF1FF33072B2AD8DFE803F041
:101770002623201B1815120E4FF4C0760020DBE73D
:101780004FF4C8760120D7E74905DBE70027EB795E
:1017900063F31F67AB7963F317476B7963F30F2725
:1017A0002B7963F307074FF0000CEB7863F31F6CA2
:1017B000AB7863F3174C6B7863F30F2C2B7863F3E0
:1017C000070CC4F808C0E760236843F001032360F6
:1017D000BDE8F0814FF0FF30FAE721B9C36843F06C
:1017E0002003C3607047036943F02003036170471F
:1017F00019B9C06800F0030070470069FAE72DE9E5
:10180000F3470546DDE90AA80E469946DDE90E4391
:10181000FFF7EEFF4FF4E07107464FF4D870CDE9C3
:10182000000102A901EB860151F8081C55F801C01E
:1018300068181CF0040C15BF4FF0010C8AF800C0AA
:101840008AF800C055F801C016BF55F801C04FEA2C
:101850005C5C4FEADC0CC9F800C0695811F0020169
:1018600018BF012188F8001041684FEA112C0C992B
:1018700081F800C0416801F00F0C0D9981F800C09B
:1018800013B14168090C19808168C368C1F307204E
:1018900021706070C1F30740C1F30761E170C3F3C9
:1018A000072123716171C3F30741C3F30763A0707C
:1018B000A171E3711AB131462846FFF78EFF384611
:1018C00002B0BDE8F0872DE9F04300264FF00F0E7F
:1018D00043F6F8789C46036847684CFA06F4E40738
:1018E0001BD5072E94BF9946B946B4B28BBF44446A
:1018F000A400A400A4B288BFA4B20EFA04F529EA99
:101900000509A51C02FA05F501FA04F42C4344EA82
:101910000904082E2CBF274623460136102EDCD1A1
:1019200003604760BDE8F083034A136823F0E06377
:10193000194301431160704704000140024A1368D3
:1019400043F080731360704700100240062822D8CD
:10195000DFE800F004090E13181D1F000F4B186874
:10196000C0F3406070470D4B1868C0F3C06070470B
:101970000A4B1868C0F340707047084B1868C0F3F2
:1019800040407047054B1868C0F340007047044B57
:10199000F9E7044BF7E70020704700BF0010024052
:1019A0002010024024100240024608B51046FFF7FE
:1019B000CDFF0028FAD008BD06280CD8DFE800F0DB
:1019C00004060C11161B1D00FFF7B8BF0C4A136864
:1019D00043F0806313607047094A136843F08053F3
:1019E000F8E7074A136843F48033F3E7044A1368BF
:1019F00043F00103EEE7034AF9E7034AF7E700BFC4
:101A0000001002402010024024100240034A1368D4
:101A100023F0030318431060704700BF0410024016
:101A2000034A136823F4701343EA80401060704740
:101A300004100240034A136823F4803343EA004051
:101A40001060704704100240034A136823F4003307
:101A500043EA40401060704704100240034A136894
:101A600023F4404343EA8030106070470410024082
:101A7000034A136823F4605343EAC02010607047A0
:101A800004100240034A136823F4E06343EA002091
:101A90001060704704100240034A136823F0F003FB
:101AA00043EA0010106070470410024008B504209B
:101AB000FFF782FF0420FFF777FF0020FFF7A6FF64
:101AC0000320FFF779FF0320FFF76EFF0120FFF7E8
:101AD0009DFF0020FFF7E0FF0320FFF7BFFF04207A
:101AE000FFF7D0FF0020FFF7C3FF022000F08EF9C0
:101AF0000720FFF795FF0120FFF79CFF0020FFF76D
:101B0000A3FFFFF71BFF0020FFF74EFF0220FFF7A8
:101B10007DFF044B044A05491360054A1160054ADC
:101B2000136008BD00A24A040000002000512502F5
:101B30000400002008000020C36801EA030221EA33
:101B4000030141EA02410161704700004AF6AA22FE
:101B5000014B1A60704700BF00300040C368194352
:101B6000C160704703690B4214BF01200020704719
:101B7000C94301617047036843F080030360704705
:101B8000036823F0100303607047036843F0010308
:101B900003607047036823F00103036070478162AC
:101BA0007047C162704706297AD8DFE801F00479EE
:101BB000337963799200836923F003038361836936
:101BC0008361836923F070038361072A68D8DFE8A3
:101BD00002F03304090D1115191D836943F0100338
:101BE00083617047836943F02003F9E7836943F019
:101BF0003003F5E7836943F04003F1E7836943F07D
:101C00005003EDE7836943F06003E9E7836943F03C
:101C10007003E5E7836923F440738361836983611B
:101C2000836923F4E0438361072A39D8DFE802F0AF
:101C300004060A0E12161A1E8369D1E7836943F45B
:101C40008053CDE7836943F40053C9E7836943F4C4
:101C50004053C5E7836943F48043C1E7836943F494
:101C6000A043BDE7836943F4C043B9E7836943F404
:101C7000E043B5E7C36923F00303C361C369C361EC
:101C8000C36923F07003C361072A09D8DFE802F0B3
:101C90003304090D1115191DC36943F01003C36105
:101CA0007047C36943F02003F9E7C36943F0300389
:101CB000F5E7C36943F04003F1E7C36943F050031C
:101CC000EDE7C36943F06003E9E7C36943F07003DC
:101CD000E5E7C36923F44073C361C369C361C369A2
:101CE00023F4E043C361072ADAD8DFE802F00406F0
:101CF0000A0E12161A1EC369D1E7C36943F4805352
:101D0000CDE7C36943F40053C9E7C36943F44053C3
:101D1000C5E7C36943F48043C1E7C36943F4A04303
:101D2000BDE7C36943F4C043B9E7C36943F4E04383
:101D3000B5E706290CD8DFE801F0040B060B080B09
:101D40000A004263704782637047C263704702644F
:101D50007047406A7047416270470000064A074B6F
:101D600090421B6804BF064B1B6803EB5103B3FB97
:101D7000F1F18160704700BF00380140040000208D
:101D800008000020C36808290CBF23F4805343F4E3
:101D90008053C3607047036923F4405319430161C2
:101DA0007047C36823F4C0631943C1607047C368B8
:101DB00023F00C031943C1607047436923F4407357
:101DC000194341617047C36843F40053C3607047CF
:101DD000430900F01F02012003F1804303F504339F
:101DE0001968904008431860704700F01F024309CB
:101DF000012003F1804303F5043319689040014347
:101E000019601A6822EA000018607047034A1368D4
:101E100023F0070318431060704700BF0020024002
:101E2000FEE77047002238B51849194C1948531875
:101E3000834217D30021184A934217D3174A184CEC
:101E40001368184D43F400731360AC4211D3164C61
:101E5000164DAC4211D3FFF793F9154C154DAC421A
:101E60000FD338BD135953500432E0E719600433DF
:101E7000E2E754F8043B9847E7E754F8043B9847F7
:101E8000E7E754F8043B9847E9E700BF000000206B
:101E9000F81E00080C000020CC00002014ED00E02B
:101EA000F81E0008F81E0008F81E0008F81E0008BA
:101EB000F81E0008F81E0008012243099B0003F1E8
:101EC000604300F01F0003F5614302FA00F0186060
:101ED00070470000432893BF00F16040044B00F0BE
:101EE0000F0000F564408CBFC1540170704700BF03
:081EF00014ED00E000020406FD
:0C1EF80000127A0000127A0000127A003A
:0400000508001E25AC
:00000001FF
