:020000040800F2
:10000000005000200D490008F9420008054300088F
:100010000B430008114300081743000800000000CC
:100020000000000000000000000000001D43000868
:100030002943000800000000354300084143000840
:100040005549000855490008554900085549000818
:100050005549000855490008554900085549000808
:1000600055490008554900085549000855490008F8
:1000700055490008554900085549000855490008E8
:1000800055490008554900085549000855490008D8
:100090005549000855490008554900084D430008D6
:1000A00055490008554900085549000855490008B8
:1000B000554900085D430008714300085549000890
:1000C0005549000855490008554900085549000898
:1000D0005549000855490008554900085549000888
:1000E000554900085549000855490008000000001E
:1000F0000000000000000000000000000000000000
:0C01000000000000000000005FF808F1A3
:1001100010B5054C237833B9044B13B10448AFF341
:1001200000800123237010BD0802002000000000A1
:10013000E0B2000808B5034B1BB103490348AFF315
:10014000008008BD000000000C020020E0B20008A2
:10015000034613F8012B002AFBD1181A0138704707
:1001600081F0004102E000BF83F0004330B54FEA68
:1001700041044FEA430594EA050F08BF90EA020FD5
:100180001FBF54EA000C55EA020C7FEA645C7FEA68
:10019000655C00F0E2804FEA5454D4EB5555B8BF8B
:1001A0006D420CDD2C4480EA020281EA030382EAFC
:1001B000000083EA010180EA020281EA0303362D8E
:1001C00088BF30BD11F0004F4FEA01314FF4801C61
:1001D0004CEA113102D0404261EB410113F0004F73
:1001E0004FEA03334CEA133302D0524263EB43032A
:1001F00094EA050F00F0A780A4F10104D5F1200EC8
:100200000DDB02FA0EFC22FA05F2801841F1000122
:1002100003FA0EF2801843FA05F359410EE0A5F1F6
:1002200020050EF1200E012A03FA0EFC28BF4CF027
:10023000020C43FA05F3C01851EBE37101F00045DD
:1002400007D54FF0000EDCF1000C7EEB00006EEBEA
:100250000101B1F5801F1BD3B1F5001F0CD3490874
:100260005FEA30004FEA3C0C04F101044FEA4452CB
:1002700012F5800F80F09A80BCF1004F08BF5FEA52
:10028000500C50F1000041EB045141EA050130BD32
:100290005FEA4C0C404141EB010111F4801FA4F1D5
:1002A0000104E9D191F0000F04BF01460020B1FA2A
:1002B00081F308BF2033A3F10B03B3F120020CDA62
:1002C0000C3208DD02F1140CC2F10C0201FA0CF040
:1002D00021FA02F10CE002F11402D8BFC2F1200CA5
:1002E00001FA02F120FA0CFCDCBF41EA0C0190405B
:1002F000E41AA2BF01EB0451294330BD6FEA0404A4
:100300001F3C1CDA0C340EDC04F11404C4F120028E
:1003100020FA04F001FA02F340EA030021FA04F3A0
:1003200045EA030130BDC4F10C04C4F1200220FAF7
:1003300002F001FA04F340EA0300294630BD21FA35
:1003400004F0294630BD94F0000F83F4801306BFFB
:1003500081F480110134013D4EE77FEA645C18BFEF
:100360007FEA655C29D094EA050F08BF90EA020F86
:1003700005D054EA000C04BF1946104630BD91EA7E
:10038000030F1EBF0021002030BD5FEA545C05D181
:100390004000494128BF41F0004130BD14F58004C0
:1003A0003CBF01F5801130BD01F0004545F0FE4134
:1003B00041F470014FF0000030BD7FEA645C1ABF69
:1003C000194610467FEA655C1CBF0B46024650EAA0
:1003D000013406BF52EA033591EA030F41F40021CC
:1003E00030BD00BF90F0000F04BF0021704730B552
:1003F0004FF4806404F132044FF000054FF0000127
:1004000050E700BF90F0000F04BF0021704730B5E7
:100410004FF4806404F1320410F0004548BF4042BC
:100420004FF000013EE700BF42004FEAE2014FEA11
:1004300031014FEA02701FBF12F07F4393F07F4FEC
:1004400081F06051704732F07F4208BF704793F0EF
:100450007F4F04BF41F40021704730B54FF4607402
:1004600001F0004521F000411CE700BF50EA010205
:1004700008BF704730B54FF000050AE050EA0102AE
:1004800008BF704730B511F0004502D5404261EB1E
:1004900041014FF4806404F132045FEA915C3FF45F
:1004A000D8AE4FF003025FEADC0C18BF03325FEAFC
:1004B000DC0C18BF033202EBDC02C2F1200300FAAD
:1004C00003FC20FA02F001FA03FE40EA0E0021FAD2
:1004D00002F11444BDE600BF70B54FF0FF0C4CF4C0
:1004E000E06C1CEA11541DBF1CEA135594EA0C0F72
:1004F00095EA0C0F00F0DEF82C4481EA030621EAAD
:100500004C5123EA4C5350EA013518BF52EA0335E7
:1005100041F4801143F4801338D0A0FB02CE4FF099
:100520000005E1FB02E506F00042E0FB03E54FF0C9
:100530000006E1FB03569CF0000F18BF4EF0010EC1
:10054000A4F1FF04B6F5007F64F5407404D25FEABD
:100550004E0E6D4146EB060642EAC62141EA555170
:100560004FEAC52040EA5E504FEACE2EB4F1FD0CB2
:1005700088BFBCF5E06F1ED8BEF1004F08BF5FEA30
:10058000500E50F1000041EB045170BD06F00046E2
:1005900046EA010140EA020081EA0301B4EB5C048F
:1005A000C2BFD4EB0C0541EA045170BD41F4801187
:1005B0004FF0000E013C00F3AB8014F1360FDEBFAC
:1005C000002001F0004170BDC4F10004203C35DA88
:1005D0000C341BDC04F11404C4F1200500FA05F30B
:1005E00020FA04F001FA05F240EA020001F00042AC
:1005F00021F0004110EBD37021FA04F642EB060122
:100600005EEA430E08BF20EAD37070BDC4F10C044B
:10061000C4F1200500FA04F320FA05F001FA04F20F
:1006200040EA020001F0004110EBD37041F10001FB
:100630005EEA430E08BF20EAD37070BDC4F1200506
:1006400000FA05F24EEA020E20FA04F301FA05F26E
:1006500043EA020321FA04F001F0004121FA04F216
:1006600020EA020000EBD3705EEA430E08BF20EAE6
:10067000D37070BD94F0000F0FD101F00046400020
:1006800041EB010111F4801F08BF013CF7D041EAA2
:10069000060195F0000F18BF704703F000465200A6
:1006A00043EB030313F4801F08BF013DF7D043EA77
:1006B0000603704794EA0C0F0CEA135518BF95EA2D
:1006C0000C0F0CD050EA410618BF52EA4306D1D1B4
:1006D00081EA030101F000414FF0000070BD50EAD3
:1006E000410606BF1046194652EA430619D094EA5D
:1006F0000C0F02D150EA013613D195EA0C0F05D147
:1007000052EA03361CBF104619460AD181EA03019A
:1007100001F0004141F0FE4141F470014FF0000052
:1007200070BD41F0FE4141F4780170BD70B54FF0ED
:10073000FF0C4CF4E06C1CEA11541DBF1CEA13556D
:1007400094EA0C0F95EA0C0F00F0A7F8A4EB05044F
:1007500081EA030E52EA03354FEA013100F0888046
:100760004FEA03334FF0805545EA131343EA12630F
:100770004FEA022245EA111545EA10654FEA0026C4
:100780000EF000419D4208BF964244F1FD0404F57D
:10079000407402D25B084FEA3202B61A65EB0305D9
:1007A0005B084FEA32024FF480104FF4002CB6EB96
:1007B000020E75EB030E22BFB61A754640EA0C0016
:1007C0005B084FEA3202B6EB020E75EB030E22BF56
:1007D000B61A754640EA5C005B084FEA3202B6EB97
:1007E000020E75EB030E22BFB61A754640EA9C0056
:1007F0005B084FEA3202B6EB020E75EB030E22BF26
:10080000B61A754640EADC0055EA060E18D04FEAE3
:10081000051545EA16754FEA06164FEAC30343EA83
:1008200052734FEAC2025FEA1C1CC0D111F4801F50
:100830000BD141EA00014FF000004FF0004CB6E749
:1008400011F4801F04BF01430020B4F1FD0C88BFE8
:10085000BCF5E06F3FF6AFAEB5EB030C04BFB6EBF3
:10086000020C5FEA500C50F1000041EB045170BDE6
:100870000EF0004E4EEA113114EB5C04C2BFD4EB13
:100880000C0541EA045170BD41F480114FF0000E97
:10089000013C90E645EA060E8DE60CEA135594EA13
:1008A0000C0F08BF95EA0C0F3FF43BAF94EA0C0F16
:1008B0000AD150EA01347FF434AF95EA0C0F7FF48B
:1008C00025AF104619462CE795EA0C0F06D152EADF
:1008D00003353FF4FDAE1046194622E750EA4106C3
:1008E00018BF52EA43067FF4C5AE50EA41047FF4D4
:1008F0000DAF52EA43057FF4EBAE12E74FF0FF3C39
:1009000006E000BF4FF0010C02E000BF4FF0010C09
:100910004DF804CD4FEA410C7FEA6C5C4FEA430C82
:1009200018BF7FEA6C5C1BD001B050EA410C0CBFD1
:1009300052EA430C91EA030F02BF90EA020F002033
:10094000704710F1000F91EA030F58BF994208BF9A
:1009500090422CBFD8176FEAE37040F00100704757
:100960004FEA410C7FEA6C5C02D150EA013C07D1AE
:100970004FEA430C7FEA6C5CD6D152EA033CD3D0F9
:100980005DF8040B704700BF8446104662468C46F3
:100990001946634600E000BF01B5FFF7B7FF002826
:1009A00048BF10F1000F01BD4DF808EDFFF7F4FF4F
:1009B0000CBF012000205DF808FB00BF4DF808EDDA
:1009C000FFF7EAFF34BF012000205DF808FB00BFFD
:1009D0004DF808EDFFF7E0FF94BF012000205DF81F
:1009E00008FB00BF4DF808EDFFF7CEFF94BF0120D4
:1009F00000205DF808FB00BF4DF808EDFFF7C4FFCD
:100A000034BF012000205DF808FB00BF4FEA410C15
:100A10007FEA6C5C02D150EA013C0AD14FEA430CF8
:100A20007FEA6C5C02D152EA033C02D14FF0000035
:100A300070474FF0010070474FEA410212F5001273
:100A400015D211D56FF47873B3EB625212D94FEA15
:100A5000C12343F0004343EA505311F0004F23FAFF
:100A600002F018BF404270474FF00000704750EA54
:100A7000013005D111F0004008BF6FF00040704711
:100A80004FF00000704700BF4A0011D212F500126B
:100A900011D20DD56FF47873B3EB62520ED44FEAD6
:100AA000C12343F0004343EA505323FA02F0704756
:100AB0004FF00000704750EA013002D14FF0FF3094
:100AC00070474FF00000704780F0004002E000BF28
:100AD00081F0004142001FBF5FEA410392EA030F29
:100AE0007FEA226C7FEA236C6AD04FEA1262D2EB73
:100AF0001363C1BFD218414048404140B8BF5B4278
:100B0000192B88BF704710F0004F40F4000020F010
:100B10007F4018BF404211F0004F41F4000121F026
:100B20007F4118BF494292EA030F3FD0A2F1010270
:100B300041FA03FC10EB0C00C3F1200301FA03F1AE
:100B400000F0004302D5494260EB4000B0F5000FD1
:100B500013D3B0F1807F06D340084FEA310102F190
:100B60000102FE2A51D2B1F1004F40EBC25008BF42
:100B700020F0010040EA03007047490040EB00000C
:100B800010F4000FA2F10102EDD1B0FA80FCACF13B
:100B9000080CB2EB0C0200FA0CF0AABF00EBC2503A
:100BA00052421843BCBFD0401843704792F0000F28
:100BB00081F4000106BF80F400000132013BB5E77B
:100BC0004FEA41037FEA226C18BF7FEA236C21D0F1
:100BD00092EA030F04D092F0000F08BF0846704756
:100BE00090EA010F1CBF0020704712F07F4F04D124
:100BF000400028BF40F00040704712F100723CBF37
:100C000000F50000704700F0004343F0FE4040F460
:100C1000000070477FEA226216BF08467FEA23631E
:100C20000146420206BF5FEA412390EA010F40F409
:100C3000800070474FF0000304E000BF10F0004355
:100C400048BF40425FEA000C08BF704743F096433C
:100C500001464FF000001CE050EA010208BF704757
:100C60004FF000030AE000BF50EA010208BF7047DE
:100C700011F0004302D5404261EB41015FEA010CF3
:100C800002BF84460146002043F0B64308BFA3F1EB
:100C90008053A3F50003BCFA8CF2083AA3EBC253CD
:100CA00010DB01FA02FC634400FA02FCC2F12002EC
:100CB000BCF1004F20FA02F243EB020008BF20F023
:100CC0000100704702F1200201FA02FCC2F1200289
:100CD00050EA4C0021FA02F243EB020008BF20EA7E
:100CE000DC7070474FF0FF0C1CEAD0521EBF1CEAAC
:100CF000D15392EA0C0F93EA0C0F6FD01A4480EA9A
:100D0000010C400218BF5FEA41211ED04FF0006382
:100D100043EA501043EA5111A0FB01310CF00040AE
:100D2000B1F5000F3EBF490041EAD3715B0040EAD4
:100D3000010062F17F02FD2A1DD8B3F1004F40EBA4
:100D4000C25008BF20F00100704790F0000F0CF077
:100D5000004C08BF49024CEA502040EA51207F3A3B
:100D6000C2BFD2F1FF0340EAC250704740F4000016
:100D70004FF00003013A5DDC12F1190FDCBF00F007
:100D800000407047C2F10002410021FA02F1C2F1B5
:100D9000200200FA02FC5FEA310040F1000053EA51
:100DA0004C0308BF20EADC70704792F0000F00F09F
:100DB000004C02BF400010F4000F013AF9D040EAA5
:100DC0000C0093F0000F01F0004C02BF490011F439
:100DD000000F013BF9D041EA0C018FE70CEAD15337
:100DE00092EA0C0F18BF93EA0C0F0AD030F0004CB7
:100DF00018BF31F0004CD8D180EA010000F000406B
:100E0000704790F0000F17BF90F0004F084691F028
:100E1000000F91F0004F14D092EA0C0F01D1420262
:100E20000FD193EA0C0F03D14B0218BF084608D12B
:100E300080EA010000F0004040F0FE4040F4000075
:100E4000704740F0FE4040F4400070474FF0FF0C08
:100E50001CEAD0521EBF1CEAD15392EA0C0F93EA4F
:100E60000C0F69D0A2EB030280EA010C49024FEAA1
:100E7000402037D04FF0805343EA111143EA10135A
:100E80000CF000408B4238BF5B0042F17D024FF412
:100E9000000C8B4224BF5B1A40EA0C00B3EB510FED
:100EA00024BFA3EB510340EA5C00B3EB910F24BFD6
:100EB000A3EB910340EA9C00B3EBD10F24BFA3EB5B
:100EC000D10340EADC001B0118BF5FEA1C1CE0D123
:100ED000FD2A3FF650AF8B4240EBC25008BF20F0D6
:100EE000010070470CF0004C4CEA50207F32C2BF2A
:100EF000D2F1FF0340EAC250704740F400004FF0C7
:100F00000003013A37E792F0000F00F0004C02BFF7
:100F1000400010F4000F013AF9D040EA0C0093F0C1
:100F2000000F01F0004C02BF490011F4000F013B1B
:100F3000F9D041EA0C0195E70CEAD15392EA0C0F83
:100F400008D142027FF47DAF93EA0C0F7FF470AFBB
:100F5000084676E793EA0C0F04D14B023FF44CAFFE
:100F600008466EE730F0004C18BF31F0004CCAD193
:100F700030F000427FF45CAF31F000437FF43CAFCF
:100F80005FE700BF4FF0FF3C06E000BF4FF0010CF1
:100F900002E000BF4FF0010C4DF804CD4FEA4002D3
:100FA0004FEA41037FEA226C18BF7FEA236C11D01D
:100FB00001B052EA530C18BF90EA010F58BFB2EBD0
:100FC000030088BFC81738BF6FEAE17018BF40F050
:100FD000010070477FEA226C02D15FEA402C05D104
:100FE0007FEA236CE4D15FEA412CE1D05DF8040B89
:100FF000704700BF844608466146FFE70FB5FFF71C
:10100000C9FF002848BF10F1000F0FBD4DF808EDD3
:10101000FFF7F4FF0CBF012000205DF808FB00BFC4
:101020004DF808EDFFF7EAFF34BF012000205DF81E
:1010300008FB00BF4DF808EDFFF7E0FF94BF01206B
:1010400000205DF808FB00BF4DF808EDFFF7D2FF68
:1010500094BF012000205DF808FB00BF4DF808EDAB
:10106000FFF7C8FF34BF012000205DF808FB00BF78
:1010700080B584B000AF3B1D00221A605A609A60B0
:10108000184B194A1A60174B00229A60154B002220
:101090001A73144B00221A75124B4FF46022DA6156
:1010A000104B00225A600F4B01221A610D4803F0C9
:1010B000D7FC0346002B01D003F078F800237B60B7
:1010C0000123BB600423FB603B1D1946054803F068
:1010D0007FFF0346002B01D003F068F800BF1037F4
:1010E000BD4680BDB00200200024014080B588B01C
:1010F00000AF786007F1100300221A605A609A600E
:10110000DA607B681B68144A934221D1134B9B69B8
:10111000124A43F400739361104B9B6903F400730C
:10112000FB60FB680D4B9B690C4A43F00403936121
:101130000A4B9B6903F00403BB60BB6801233B615E
:1011400003237B6107F110031946054804F0ECFF07
:1011500000BF2037BD4680BD002401400010024082
:101160000008014080B500AF174B184A1A60164BB3
:1011700009225A60144B00229A60134B0022DA6055
:10118000114B4FF4A0221A610F4B00225A610E4BF3
:1011900000221A760C4B00225A760B4B00229A76CC
:1011A000094B0022DA76084B00221A77064B002200
:1011B0005A77054804F090F80346002B01D002F05E
:1011C000F5FF00BF80BD00BFE002002000640040CA
:1011D00080B58AB000AF786007F1140300221A606E
:1011E0005A609A60DA607B681B68254A934243D153
:1011F000244BDB69234A43F00073D361214BDB6945
:1012000003F000733B613B691E4B9B691D4A43F031
:10121000080393611B4B9B6903F00803FB60FB68A9
:101220004FF480737B610023BB610023FB6107F1F6
:1012300014031946144804F077FF4FF400737B61E0
:101240000223BB6103233B6207F1140319460E48D6
:1012500004F06AFF0D4B5B687B627B6A23F4C0433A
:101260007B627B6A43F0E0637B627B6A43F480438A
:101270007B62064A7B6A536000BF2837BD4680BD4B
:101280000064004000100240000C014000000140DA
:1012900080B58AB000AF06237B8406233B840023FD
:1012A000FB840023FB830023BB834FF6FF73BB84C7
:1012B00000237B619E4B1B887B849E4B1B883B8459
:1012C00000237B609A4BFB6001233B617B8C4EF6D5
:1012D000EE62934257D04FF6FF72934203D0002B39
:1012E00000F0F4808DE13B8C002B16D1904800F08B
:1012F000A9F90346002B40F08E8107F114023B1D33
:101300001146184604F068FE0346FB76FB7E002B70
:1013100000F08181FB7E9BB285E13B8C4EF6EE6254
:10132000934225D1824800F08DF90346002B0ED15F
:1013300007F114023B1D1146184604F04DFE03460A
:10134000FB76FB7E002B02D0FB7E9BB26BE14FF065
:1013500000024FF000037749012004F0E5FC03464A
:10136000FB76FB7E002B00F05681FB7E9BB25AE1A0
:1013700000F0FAF90346FB76FB7E002B00F04B8170
:10138000FB7E9BB24FE13B8C002B63D10023FB849F
:1013900030E0694B1B889AB2FB8C684931F81330F6
:1013A0009A4201D1FB8CBB84FA8CB7F924309A4263
:1013B0001DD0FB8C614A32F813306149184600F0A9
:1013C00067F90346BB83BB8B012B10D0FB8C5B4AB8
:1013D00032F813205A4B1B881946104600F058FA71
:1013E0000346FB83FB8B002B01D0FB8B1BE1FB8CAB
:1013F0000133FB84FB8C0D2BCBD94FF000024FF057
:1014000000034B49012004F08FFC0346FB76FB7E72
:10141000002B02D0FB7E9BB205E100237B60454B95
:10142000FB6001233B61434800F00CF90346002BAD
:1014300040F0F38007F114023B1D1146184604F0FA
:10144000CBFD0346FB76FB7E002B00F0E680FB7EA7
:101450009BB2E8E03B8C4FF6FF7293422BD1002306
:101460007B60344BFB6001233B61324800F0EAF8BB
:101470000346002B0ED107F114023B1D11461846FE
:1014800004F0AAFD0346FB76FB7E002B02D0FB7E18
:101490009BB2C8E04FF000024FF000032449012046
:1014A00004F042FC0346FB76FB7E002B00F0B58087
:1014B000FB7E9BB2B7E000F057F90346FB76FB7E5C
:1014C000002B00F0AA80FB7E9BB2ACE03B8C002B93
:1014D0000AD100F049F90346FB76FB7E002B00F0B1
:1014E0009E80FB7E9BB29EE03B8C4FF6FF72934248
:1014F0001BD100237B600F4BFB6001233B610D4838
:1015000000F0A0F80346002B40F0898007F1140298
:101510003B1D1146184604F05FFD0346FB76FB7E3B
:10152000002B7CD0FB7E9BB27DE00023FB843AE065
:1015300000F0000800F8000806F000081000002085
:10154000240200203A4B1B889AB2FB8C394931F8AF
:1015500013309A4201D1FB8CBB84FA8CB7F924304A
:101560009A421DD0FB8C334A32F813303249184668
:1015700000F08EF80346BB83BB8B012B10D0FB8C95
:101580002C4A32F813202C4B1B881946104600F0C9
:101590007FF90346FB83FB8B002B01D0FB8B42E0E2
:1015A000FB8C0133FB84FB8C0D2BCBD94FF000025D
:1015B0004FF000032149012004F0B6FB0346FB76FF
:1015C000FB7E002B02D0FB7E9BB22CE000237B60D5
:1015D0001B4BFB6001233B61194800F033F80346C5
:1015E000002B1CD107F114023B1D1146184604F0D4
:1015F000F3FC0346FB76FB7E002B10D0FB7E9BB2F8
:1016000011E000F0B1F80346FB76FB7E002B08D01A
:10161000FB7E9BB207E000BF04E000BF02E000BF1A
:1016200000E000BF002318462837BD4680BD00BF3C
:1016300006F80008100000202402002000F800082E
:1016400000F0000880B485B000AF78600123FB6033
:1016500045F255537B810DE07B681B887B817B893C
:101660004FF6FF72934202D00023FB6006E07B68D6
:1016700004337B607B68054A9342EDD9FB689BB2DB
:1016800018461437BD4680BC704700BFFFF3000802
:1016900080B586B000AF03463960FB800023FB8134
:1016A00045F25553BB810123FB821C4B3B611B4B15
:1016B000BB60002000F0A8F80346FB81FB89AB2B40
:1016C00001D1AB2325E0FB8903F500333C339B02BA
:1016D000BB60FB8901339A02114B13443B6112E05A
:1016E0003B691B88BB81BA89FB889A4208D13B6958
:1016F000023B1B889AB23B681A800023FB8207E0FA
:101700003B69043B3B61BB6802333A699A42E7D8C4
:10171000FB8A18461837BD4680BD00BF00F00008A0
:10172000FEEF000880B584B000AF03460A46FB8098
:101730001346BB800023FB81BA88FB8811461846FC
:1017400000F0A6F80346FB81FB89802B07D1BA88FD
:10175000FB881146184600F0F9F80346FB81FB8927
:1017600018461037BD4680BD80B586B000AF002357
:10177000FB7500233B6100233B60214BBB600123D1
:10178000FB601F48FFF75EFF0346002B0DD107F1FA
:1017900010023B461146184604F01EFC0346FB753A
:1017A000FB7D002B01D0FB7D25E04FF000024FF0C8
:1017B00000031349012004F0B7FA0346FB75FB7DD3
:1017C000002B01D0FB7D16E00E4BBB600D48FFF7F0
:1017D00039FF0346002B0DD107F110023B4611469D
:1017E000184604F0F9FB0346FB75FB7D002B01D086
:1017F000FB7D00E0002318461837BD4680BD00BFC2
:1018000000F0000800F8000880B485B000AF03467F
:10181000FB710623FB810623BB811B4B1B88FB81CD
:101820001A4B1B88BB81FB79002B1BD0012B25D1C8
:10183000BB89002B08D1FB894EF6EE62934201D1A1
:1018400000231CE040231AE0FB89002B08D1BB8950
:101850004EF6EE62934201D1402310E000230EE0E9
:10186000AB230CE0FB89002B01D1002307E0BB89EF
:10187000002B01D1402302E0AB2300E000231846F7
:101880001437BD4680BC704700F0000800F800081F
:1018900090B587B000AF03460A46FB801346BB8075
:1018A0000023FB7400233B82254B7B61254BFB60AF
:1018B0000120FFF7A9FF03463B823B8AAB2B01D1F6
:1018C000AB2339E03B8A03F500333C339B027B6159
:1018D0003B8A01339A021C4B1344FB6027E07B696F
:1018E0001B68B3F1FF3F1FD1BB884FF000041A46BD
:1018F00023467969012004F017FA0346FB74FB7C48
:10190000002B02D0FB7C9BB216E07B69991CFB8804
:101910004FF000041A462346012004F005FA03465E
:10192000FB74FB7C9BB207E07B6904337B617A69C3
:10193000FB689A42D3D3802318461C37BD4690BD1E
:1019400000F0000800F40008FFEF000880B58CB03C
:1019500000AF03460A46FB801346BB80002387F88E
:101960002530534BFB620023BB6200237B840023A2
:10197000FB8400233B840023FB830023BB61002006
:10198000FFF742FF03467B847B8C402B04D1484BFE
:10199000FB62484BBB6209E07B8C002B04D1454BBA
:1019A000FB62434BBB6201E0AB237CE04EF6EE6290
:1019B0004FF00003F96A012004F0B6F9034687F8F6
:1019C000253097F82530002B03D097F825309BB2AF
:1019D00069E0BA88FB8811461846FFF759FF0346AD
:1019E0003B843B8C002B01D03B8C5CE00023FB84D0
:1019F00027E0FB8C304A32F81330FA889A421DD027
:101A0000FB8C2D4A32F813302C491846FFF740FE64
:101A10000346FB83FB8B012B10D0FB8C264A32F84C
:101A20001320264B1B8819461046FFF731FF03464B
:101A30003B843B8C002B01D03B8C34E0FB8C01338E
:101A4000FB84FB8C0D2BD4D90023BB60BB6A3B61AC
:101A500001237B6107F1180207F1080311461846BC
:101A600004F0BAFA034687F8253097F82530002BA2
:101A700003D097F825309BB215E04FF000024FF0ED
:101A80000003F96A012004F04FF9034687F8253076
:101A900097F82530002B03D097F825309BB202E051
:101AA00097F825309BB218463037BD4680BD00BF41
:101AB00000F0000800F800081000002024020020B8
:101AC00080B588B000AF07F1100300221A605A6099
:101AD0009A60DA60484B9B69474A43F01003936170
:101AE000454B9B6903F01003FB60FB68424B9B690D
:101AF000414A43F0200393613F4B9B6903F020036D
:101B0000BB60BB683C4B9B693B4A43F00403936159
:101B1000394B9B6903F004037B607B68364B9B6900
:101B2000354A43F008039361334B9B6903F0080384
:101B30003B603B6800224FF40051304804F065FCE4
:101B400000221C212E4804F060FC00224FF2E0012C
:101B50002C4804F05AFC4FF400533B6101237B6195
:101B60000023BB610223FB6107F1100319462348E0
:101B700004F0DAFA1C233B6101237B610023BB6183
:101B80000223FB6107F1100319461D4804F0CCFA4B
:101B900040233B611C4B7B610023BB6107F11003B9
:101BA0001946174804F0C0FA4FF2E0033B610123E5
:101BB0007B610023BB610223FB6107F1100319461F
:101BC000104804F0B1FA18233B6100237B61002325
:101BD000BB6107F1100319460A4804F0A5FA002278
:101BE0000021172004F069F8172004F082F800BFE4
:101BF0002037BD4680BD00BF0010024000100140EC
:101C000000080140000C014000003110F0B591B017
:101C10000AAFA34B1A88A34B1A80A34B00221A7059
:101C200002F09AFE00F04AFDFFF74AFFFFF720FAA4
:101C3000FFF798FA02F04EFD02F076FD02F026FE64
:101C400002F0BAFA02F068FC02F0B4FC04F0DCF82E
:101C5000FFF71EFB04F0FEF8642001F06BFF9348D1
:101C600000F024FF914B1B780B2B2ED0904807F0EF
:101C7000EDF98E4B0B221A708C4B44F620629A8140
:101C80008A4B7B225A70894B8A4A1A61874B3022D1
:101C90009A70864B49F66C521A81844B49F6783219
:101CA0005A81824B0122DA70804B01221A717F4BDC
:101CB00043F2B0629A827D4B01229A717B4B0222E1
:101CC0005A717A4800F06EFF02E07B4807F0BEF9D7
:101CD00000F0EAFF0346002B03D0784807F0B6F97E
:101CE00002E0774807F0B2F9764805F0F4FD764B4C
:101CF0001B68012B51D1744B00221A60734B1B8857
:101D00009C46724B5B889E46704B9B881946704B75
:101D10001B8818466E4B5B881C466D4B9B881D4686
:101D20006C4B1B881E466B4B5B88FB60694B9B882A
:101D3000BB60694B1B88694AA2FB03239B099BB2CA
:101D40007B60654B5B88654AA2FB03239B099BB2C2
:101D50003B60614B9B88614AA2FB03239B099BB2BA
:101D600009933A6808927A680792BA680692FB6803
:101D70000593049603950294019000917346624680
:101D80005749584807F06AF932234A2255495648BC
:101D900006F06DF9052001F0CDFE0021534803F057
:101DA0008EFE0346002B09D0514B524A00214F486A
:101DB00003F074FD4E494F4800F0DAFF052301227D
:101DC0004D494E4806F0ECF90346002B01D101F0D5
:101DD000C7FA364B1B79012B12D9494B1B68002BD4
:101DE0000ED001F073FE0246464B1B68D31AB3F5C2
:101DF000FA6F05D9424B00221A60434807F026F9D2
:101E00000821424804F0EAFA0346002B02D13C4B79
:101E100000221A603A4B1B68012B7DD0022B00F088
:101E20001081002B00D087E1394805F077FD1E4B6B
:101E30001B78002B02D01C4B00221A7000220421B8
:101E4000344804F0E2FA00224FF400412F4804F035
:101E5000DCFA002208212F4804F0D7FA00222021C2
:101E60002A4804F0D2FA00224021284804F0CDFA92
:101E700000228021254804F0C8FA00224FF4804156
:101E8000224804F0C2FA00224FF400511F4804F027
:101E9000BCFA00224FF480511C4804F0B6FA4BE122
:101EA0000A0000204A0200206E0300205003002098
:101EB00014B3000820A107002CB3000850B3000899
:101EC00078B30008F40300202802002060020020FC
:101ED000680200205002002058020020D34D6210FA
:101EE0009CB300089403002074040020E00200204A
:101EF00084030020180300202C020020B4040020DA
:101F00001003002068030020F4B30008000C014017
:101F100034040020000801400821B94804F05EFAAA
:101F20000346012B40F08680B64B1B7883F00103FB
:101F3000DBB2002B00F0FD80B24B01221A70B24BD5
:101F40005B780C2B2AD00C2B06DC022B14D0032B35
:101F50001BD0012B07D05EE0172B4ED07B2B39D046
:101F60000D2B29D057E001222021A54804F04DFA7D
:101F7000A64B01221A604EE001224021A04804F045
:101F800044FAA24B01221A6045E0012280219C48BC
:101F900004F03BFA9D4B01221A603CE00122202113
:101FA000974804F032FA01224021954804F02DFAB6
:101FB000964B02221A602EE001222021904804F064
:101FC00024FA012280218E4804F01FFA8F4B02224E
:101FD0001A6020E001222021894804F016FA01222B
:101FE0004021874804F011FA01228021844804F03E
:101FF0000CFA864B03221A600DE001224021804832
:1020000004F003FA012280217D4804F0FEF97F4BA1
:1020100002221A6000BF642001F08CFD01224FF4FF
:102020000041774804F0F1F901221021784804F0CA
:10203000ECF97EE0734B00221A70764B00221A6096
:1020400077E001220421724804F0DFF9724805F0BC
:1020500042FC6D4B5B780C2B24D00C2B06DC022B46
:1020600012D0032B17D0012B07D055E0172B46D0E9
:102070007B2B31D00D2B22D04EE001224FF480413A
:102080005F4804F0C2F947E001224FF400515C4878
:1020900004F0BBF940E001224FF48051584804F0AD
:1020A000B4F939E001224FF48041554804F0ADF90C
:1020B00001224FF40051524804F0A7F92CE001220C
:1020C0004FF480414E4804F0A0F901224FF48051B2
:1020D0004B4804F09AF91FE001224FF48041484830
:1020E00004F093F901224FF40051454804F08DF9B2
:1020F00001224FF48051424804F087F90CE001229C
:102100004FF400513E4804F080F901224FF4805111
:102110003B4804F07AF900BF01F0D8FC0346A3F174
:102120000A023E4B1B689A4205D93A4B01221A60BB
:1021300001E000BF00E000BF01F0C8FC0346A3F5CA
:10214000FA72374B1B689A4240F2348201F0BEFCAF
:102150000246334B1A6000F023FC00F08DFB00F0C8
:10216000E5FB304B1B68002B00F032812E4806F057
:102170006DFF01F0ABFC034619462C4806F0DEFE6D
:102180002B4806F0DBFE234B1B681946294806F056
:10219000D5FE294806F0D2FE1B4B9B7919462548EF
:1021A00006F0CCFE254806F0C9FE184B1B68194600
:1021B000204806F0C3FE134B1B78002B03D02048A9
:1021C00006F0BCFE02E01F4806F0B8FE08210C48ED
:1021D00004F004F90346012B03D11B4806F0AEFEC0
:1021E00002E01A4806F0AAFE064B1B78002B00F00E
:1021F000E6800D4806F02AFF00237B61DAE000BF8D
:10220000000C01406E030020500300200803002052
:102210000008014010030020340400203002002098
:102220000C0300200400002004B4000808B40008D7
:102230000CB4000818B400081CB4000828B4000846
:102240003CB4000844B400084CB4000854B400087E
:102250006F4806F073FE7B69013319466D4806F03E
:102260006DFE6D4806F06AFE6C4A7B6913441B786C
:102270001946684806F062FE694806F05FFE694A42
:102280007B6932F813301946624806F057FE6648FB
:1022900006F054FE654A7B6932F813301846FEF7A3
:1022A000CDFC034662491846FEF71CFD034618465E
:1022B000FEF7BAF803460C461A4623465D4806F078
:1022C0003DFE5D4806F03AFE5C4A7B6932F8133009
:1022D0001946504806F032FE594806F02FFE594A7A
:1022E0007B6932F813301846FEF7A8FC03465649BE
:1022F0001846FEF7F7FC03461846FEF795F8034626
:102300000C461A462346514806F018FE504806F07F
:1023100015FE504A7B6913441B7819463D4806F068
:102320000DFE4D4806F00AFE4C4A7B6913441B78AB
:102330001946384806F002FE494806F0FFFD494AB2
:102340007B6913441B781946324806F0F7FD444870
:1023500006F0F4FD434A7B69134403331B781946A6
:102360002C4806F0EBFD404806F0E8FD3F4A7B694B
:1023700013441B781946274806F0E0FD3C4806F058
:10238000DDFD3C4A7B6913441B781946214806F061
:10239000D5FD394806F0D2FD384A7B6913441B78D5
:1023A00019461C4806F0CAFD354806F04FFE7B6909
:1023B00001337B617B69022B7FF74AAF08E030482D
:1023C00006F044FE2F4806F0B9FD2D4806F03EFE0B
:1023D0002D4B1B68012B40F0ED802C4B1B68002B14
:1023E00000F0E880264806F031FE294806F0A6FDF8
:1023F000284B1B78012B07D0022B51D0002B53D137
:10240000254806F09BFD4FE0244806F097FD4BE081
:102410005CB4000818B4000868B40008800200200A
:1024200084B400086002002090B400086802002014
:102430000A85883D9CB40008A4B40008500200201E
:10244000B0B4000858020020F9FF5B3ABCB40008A1
:10245000C4B4000870020020D4B400087402002044
:10246000E8B4000878020020ECB4000884020020E0
:10247000F4B4000888020020FCB400088C0200209C
:1024800004B4000804B50008040000200000002087
:1024900018B500083402002030B500083CB500082B
:1024A0006B4806F04BFD00BF6A4806F047FD6A4BDB
:1024B0001B881946694806F041FD694806F03EFD53
:1024C000684B1B889BB21946644806F037FD664886
:1024D00006F034FD654B1B881946604806F02EFD5A
:1024E000634806F02BFD634B1B881846FEF7A6FBDE
:1024F00003464FF07F511846FEF7A8FC03461846E6
:10250000FDF792FF03460C461A4623465A4806F04A
:1025100015FD5A4806F012FD594B1B881846FEF768
:102520008DFB034657491846FEF7DCFB0346184669
:10253000FDF77AFF03460C461A462346524806F03A
:10254000FDFC524806F0FAFC514B1B891846FEF779
:1025500075FB03464F491846FEF7C4FB0346184671
:10256000FDF762FF03460C461A462346424806F032
:10257000E5FC494806F0E2FC454B5B891846FEF74E
:102580005DFB034643491846FEF7ACFB034618467D
:10259000FDF74AFF03460C461A462346364806F026
:1025A000CDFC3E4806F0CAFC3D4B1B8819462B4823
:1025B00006F0C4FC01F020FD01F0E2FB00F0E0F8C1
:1025C000334BDB78012B7FF492AB364B1B78022B1D
:1025D00025D1354B1B7883F00103DBB2002B1ED0D5
:1025E000204B1B889BB2B3F5AF6F12D92F4B1B68E2
:1025F000002B0ED108212E4803F0F0FE0346012BDC
:1026000007D12A4B02221A6001F060FA0246294BD8
:102610001A6001220821284803F0F7FE15E0234B39
:1026200000221A6000220821234803F0EEFE1E4B10
:102630001B7883F00103DBB2002B3FF458AB01227F
:102640004FF400411A4803F0E0FEFFF750BB00BF13
:102650004CB5000858B500084002002018B4000826
:1026600068B500083C02002078B500083E02002052
:1026700088B5000880030020A0B50008A8B50008B0
:102680005E0200200AD7A33BB8B50008C0B5000819
:10269000500300200AD7233CD0B50008DCB5000861
:1026A0004A020020340200208B0200201003002088
:1026B000000C0140300200200008014080B594B0B9
:1026C00000AF07F1280328220021184605F0DEFF9D
:1026D00007F1140300221A605A609A60DA601A61E6
:1026E0003B1D00221A605A609A60DA600923BB62BF
:1026F0004FF48033FB6200233B630123BB63012360
:102700003B6402237B644FF48033BB644FF4E013DB
:10271000FB6407F12803184603F096FF0346002BDD
:1027200001D001F043FD0F237B610223BB61002335
:10273000FB614FF480633B6200237B6207F114036B
:102740000221184604F000FA0346002B01D001F0E4
:102750002DFD13237B604FF40073BB604FF40043E7
:10276000FB6000233B613B1D184604F089FB0346D8
:10277000002B01D001F01AFD00BF5037BD4680BDCF
:1027800080B500AF364B1B78002B1FD0354B1B7824
:10279000002B1BD0344B1B78002B17D0334B5B78AE
:1027A000012B0BD0314B5B780C2B07D02F4B5B7878
:1027B0000D2B03D02D4B5B787B2B07D12C4B0022AC
:1027C0001A60002208212B4803F01FFE244B1B78BF
:1027D000002B1FD0234B5B78002B1BD0224B5B7848
:1027E000002B17D0214B5B78022B0BD01F4B5B7853
:1027F0000C2B07D01D4B5B78172B03D01B4B5B7842
:102800007B2B07D11A4B00221A600022082119489D
:1028100003F0FBFD124B1B78002B1FD0114B9B7854
:10282000002B1BD0104B9B78002B17D00F4B5B78E5
:10283000032B0BD00D4B5B780D2B07D00B4B5B782C
:10284000172B03D0094B5B787B2B07D1084B002259
:102850001A6000220821074803F0D7FD00BF80BDA1
:102860006E03002080020020880200205003002018
:10287000100300200008014098B500AF234B1B78DF
:10288000002B28D0224B1B7883F00103DBB2002BF6
:1028900021D0204B1B881846FEF7D0F904461E4B6A
:1028A0005B891846FEF7CAF903461C491846FEF72D
:1028B00019FA034619462046FEF7D0FB0346002BC3
:1028C00006D0174B1B8801339AB2154B1A8002E0D1
:1028D000134B00221A80134B1B78002B06D10E4B92
:1028E000DB78012B02D10A4B00221A700C4B1B889B
:1028F0000A2B08D90C4B00221A60054B01221A70D2
:10290000074B00221A8000BF98BD00BF6E03002055
:102910008B02002050020020500300200AD7233CE5
:1029200094020020340200201003002080B500AF84
:10293000164BDB78002B26D1154B1B68002B15D1CD
:102940000821144803F04AFD0346012B0ED1124B17
:102950001B7883F00103DBB2002B07D00C4B022263
:102960001A6001F0B3F802460C4B1A6008210948BE
:1029700003F034FD0346002B05D1054B00221A60FD
:10298000054B00221A7000BF80BD00BF500300201D
:1029900010030020000C01408B02002030020020B8
:1029A00080B500AF3C4802F033F905213A4802F007
:1029B00009FA0346002B07D1374802F0FDFA034617
:1029C0009B089AB2354B1A80334802F0CFF9344B4A
:1029D0005B79022B44D1314B1B8840F2B6329342D3
:1029E00003D9304B00221A703AE02E4B02221A70A3
:1029F0002A4B1B8840F2B532934208D8274B1B88DC
:102A0000B3F5487F03D9284B43F2C8221A80234BE1
:102A10001B88B3F5487F08D2204B1B88B3F52F7F66
:102A200003D9214B44F620621A801C4B1B88B3F556
:102A3000167F08D2194B1B88B3F5E17F03D91A4BD7
:102A40004FF4FA421A80154B1B88B3F5C87F07D2A2
:102A5000124B1B88FA2B03D9134B4FF218621A80C2
:102A60000F4B5B79012B15D10C4B1B88B3F5487FBD
:102A700003D90C4B00221A700CE0084B1B8840F263
:102A80002622934203D9074B01221A7002E0054B1C
:102A900002221A7000BF80BDB00200204002002058
:102AA00050030020340200203E02002080B584B094
:102AB00000AF786003F0A8F9394B1B887A6811469B
:102AC0001846FEF7E5FD364B5A887B6801331946F8
:102AD0001046FEF7DDFD324B9A887B6802331946BB
:102AE0001046FEF7D5FD2E4BDA887B680333194676
:102AF0001046FEF7CDFD2A4B1A897B680433194630
:102B00001046FEF7C5FD264B5A897B6805331946EA
:102B10001046FEF7BDFD224B9A897B6806331946A5
:102B20001046FEF7B5FD1E4BDA897B68083319465F
:102B30001046FEF7ADFD1A4B1A8A7B680A33194618
:102B40001046FEF7A5FD164B5A8A7B680C331946D2
:102B50001046FEF79DFD124B9B8A07F10E021146AF
:102B60001846FEF795FD0E4BDB8A07F10C02114665
:102B70001846FEF78DFD0A4B1A8B7B6814331946F5
:102B80001046FEF785FDFB891B04BA891A437B6852
:102B90001A6103F05FF900BF1037BD4680BD00BF6A
:102BA0001000002080B584B000AF78607B681B699E
:102BB0001B0CFB817B681B69BB8103F025F9394B3A
:102BC0001A887B681B789BB219461046FEF7AAFD4F
:102BD000344B5A887B685B789BB219461046FEF7E7
:102BE000A1FD304B9A887B689B789BB219461046B2
:102BF000FEF798FD2B4BDA887B68DB789BB2194691
:102C00001046FEF78FFD274B1A897B681B799BB214
:102C100019461046FEF786FD224B5A897B685B7980
:102C20009BB219461046FEF77DFD1E4B9A897B68C4
:102C30009B799BB219461046FEF774FD194BDA8951
:102C40007B681B8919461046FEF76CFD154B1A8AE6
:102C50007B685B8919461046FEF764FD114B5A8A62
:102C60007B689B8919461046FEF75CFD0D4B9B8ADD
:102C7000FA8911461846FEF755FD0A4BDB8ABA89D8
:102C800011461846FEF74EFD064B1A8B7B689B8A51
:102C900019461046FEF746FD03F0DCF800BF10377A
:102CA000BD4680BD1000002080B500AF00F026F8C2
:102CB000034683F00103DBB2002B01D0002317E0B1
:102CC000022001F0ABFE0B4802F0CAFC0346002BC9
:102CD00001D000230CE0084B0022DA60064B0022F2
:102CE0009A60054B08221A61034B00221A750123D2
:102CF000184680BDE00200203403002080B58AB071
:102D000000AF00237B610023BB610123FB61002333
:102D10003B6000237B600023BB600023FB6000233B
:102D20003B6101233B620E237B623B46194606480A
:102D300002F0CDFB0346002B01D0002300E001236D
:102D400018462837BD4680BDE002002080B582B01D
:102D500000AF7860391D4FF6FF730122034805F07C
:102D600086F97B6818460837BD4680BDB40400204C
:102D700090B585B000AF786039600023FB607B6858
:102D80001B68A3F20723442B00F2CD8201A252F864
:102D900023F000BF0B30000827330008A7300008DD
:102DA0002733000871310008273300082733000853
:102DB000273300082733000827330008273300088B
:102DC000273300082733000827330008273300087B
:102DD00027330008A92E000827330008B32E000867
:102DE00027330008BD2E00082733000827330008CA
:102DF000273300082733000827330008273300084B
:102E0000273300082733000827330008273300083A
:102E1000273300080D320008273300086B32000802
:102E200027330008C9320008273300082733000879
:102E3000273300082733000827330008273300080A
:102E400027330008273300082733000827330008FA
:102E5000273300089F2F000827330008332F00086E
:102E600027330008FD2E0008273300082733000809
:102E700027330008273300082733000827330008CA
:102E800027330008273300082733000827330008BA
:102E900027330008D52F000827330008692F0008C2
:102EA00027330008C72E00083B681A78A04B1A7019
:102EB0003AE23B681A789E4B5A7035E23B681A78C2
:102EC0009B4B9A7030E23B681B781846FDF79AFAE4
:102ED0004FF00002974BFDF7FFFA03460C461846E9
:102EE0002146FDF7D1FD0346DAB2934B9A70934B1E
:102EF0001B6843F00103914A136015E23B681B789D
:102F0000283BDAB28E4B9A703B6801331B78283B22
:102F1000DAB28B4B5A713B6805331B78283BDAB227
:102F2000884B9A70854B1B6843F00103834A1360FA
:102F3000FAE13B681B78283BDAB2814B5A703B6858
:102F400001331B78283BDAB27D4B1A713B6805339D
:102F50001B78283BDAB27B4B5A70784B1B6843F0E6
:102F60000103764A1360DFE13B681B781846FDF7E2
:102F700049FA4FF000026F4BFDF7AEFA03460C46DC
:102F800018462146FDF780FD0346DAB26A4B5A70B7
:102F90006A4B1B6843F00103684A1360C4E13B6855
:102FA0001B78283BDAB2664B1A703B6801331B78FA
:102FB000283BDAB2624BDA703B6805331B78283B5A
:102FC000DAB2604B1A705D4B1B6843F001035B4A39
:102FD0001360A9E13B681B781846FDF713FA4FF020
:102FE0000002544BFDF778FA03460C46184621467A
:102FF000FDF74AFD0346DAB24F4B1A704F4B1B6880
:1030000043F001034D4A13608EE13B6801331B78A6
:103010009AB24D4B1A803B6806331B789BB203F083
:1030200003039BB21B029AB23B6805331B789BB229
:1030300013449BB25B089AB2444B1A803B6801333D
:103040001B78FB60FB68462B03DD414B01221A70A5
:1030500002E03F4B00221A703B6802331B7803F0FA
:103060000203FB60FB68002B03D03A4B01221A706D
:1030700002E0384B00221A703B6802331B7803F0E1
:103080000403FB60FB68002B03D0334B01221A7052
:1030900002E0314B00221A70284B1B6843F00103F9
:1030A000264A136040E13B6801331B789AB2264BF5
:1030B0005A803B6806331B789BB203F003039BB234
:1030C0001B029AB23B6805331B789BB213449BB238
:1030D0005B089AB21D4B5A803B6801331B78FB603A
:1030E000FB68462B03DD1A4B01225A7002E0184B95
:1030F00000225A703B6802331B7803F00203FB6026
:10310000FB68002B03D0134B01225A7002E0114BD5
:1031100000225A703B6802331B7803F00403FB6003
:10312000FB68002B1AD00C4B01225A7019E000BF2B
:103130008C0200200000CE3F74020020900200208C
:103140007802002070020020600200206802002047
:10315000800200208402002088020020784B002298
:103160005A70784B1B6843F00103764A1360DBE02A
:103170003B6801331B789AB2734B9A803B680633E5
:103180001B789BB203F003039BB21B029AB23B680D
:1031900005331B789BB213449BB25B089AB26B4B0E
:1031A0009A803B6801331B78FB60FB68462B03DD8C
:1031B000674B01229A7002E0654B00229A703B68CF
:1031C00002331B7803F00203FB60FB68002B03D083
:1031D000604B01229A7002E05E4B00229A703B68BD
:1031E00002331B7803F00403FB60FB68002B03D061
:1031F000534B01229A7002E0514B00229A70514BBE
:103200001B6843F001034F4A13608DE03B680533B0
:103210001B789BB21B029AB23B6804331B789BB2AB
:1032200013449AB24C4B1A803B6803331B781B0241
:103230003A680232127813441846FDF7E3F83CA3CB
:10324000D3E90023FDF748F903460C46184621460A
:10325000FDF71AFC03469AB2404B1A80394B1B68A3
:1032600043F00203374A13605EE03B6805331B7886
:103270009BB21B029AB23B6804331B789BB2134487
:103280009AB2354B5A803B6803331B781B023A686D
:103290000232127813441846FDF7B4F824A3D3E998
:1032A0000023FDF719F903460C4618462146FDF7A1
:1032B000EBFB03469AB2294B5A80224B1B6843F022
:1032C0000203204A13602FE03B6805331B789BB252
:1032D0001B029AB23B6804331B789BB213449AB228
:1032E0001D4B9A803B6803331B781B023A680232FD
:1032F000127813441846FDF785F80FA3D3E900238D
:10330000FDF7EAF803460C4618462146FDF7BCFBDC
:1033100003469AB2114B9A800A4B1B6843F0020392
:10332000084A136000E000BF00BF1437BD4690BDDF
:10333000819E61C50490853FF4E5FD66FF8F853F62
:103340008802002090020020600200206802002015
:103350008002002084020020580200205002002039
:1033600080B582B002AFBA4B1B68012B40F01E82C1
:10337000B84B1B78313B432B00F2188201A252F864
:1033800023F000BFEF34000817350008533500085C
:103390009D350008F535000871360008C136000873
:1033A000AD37000815370008AD370008AD37000805
:1033B000AD370008AD370008AD370008AD3700085D
:1033C000AD370008AD370008AD370008AD3700084D
:1033D000AD370008AD370008AD370008AD3700083D
:1033E000AD370008AD370008AD370008AD3700082D
:1033F000AD370008AD370008AD370008AD3700081D
:10340000AD370008AD370008AD370008AD3700080C
:10341000AD370008AD370008AD370008AD370008FC
:10342000AD370008AD370008AD370008AD370008EC
:10343000AD370008AD370008AD370008AD370008DC
:10344000AD370008A3340008C9340008AD370008C0
:10345000AD370008AD370008AD370008AD370008BC
:10346000AD370008AD370008AD370008AD370008AC
:10347000AD370008AD370008AD370008AD3700089C
:10348000AD37000895340008AD370008AD370008A7
:1034900041370008704B01221A606D4B00221A6000
:1034A00084E16E4B1B6801336C4A13606B4B1B68E5
:1034B000012B02DD694B00221A60654B00221A6065
:1034C000644B64221A7071E1654B1B680133644AD6
:1034D0001360634B1B68012B02DD614B00221A60F5
:1034E0005B4B00221A605B4B64221A705EE15D4BFD
:1034F000DB780133DAB25B4BDA705A4BDB78012BA5
:1035000002D9584B0022DA70514B00221A60514BFD
:1035100064221A704AE105220021534805F0B6F8EA
:10352000052305225049514804F03AFE4E4B1B78C2
:10353000002B00F02C814C4805F079F80346DAB2F4
:10354000484B5A70424B00221A60424B64221A7058
:103550001DE105220021444805F098F805230522C5
:103560004149424804F01CFE3F4B1B78002B00F001
:1035700010813D4805F05BF80346DAB2394B1A7109
:10358000384B1B79032B02D9364B00221A71304B72
:1035900000221A602F4B64221A70FAE005220021E3
:1035A000314805F073F8052305222F492F4804F010
:1035B000F7FD2D4B1B78002B00F0ED802A4805F01D
:1035C00036F80346DAB2274B5A71264B5B79022B49
:1035D00002D9244B02225A71224B5B79002B02D173
:1035E000204B02225A711A4B00221A60194B642296
:1035F0001A70D0E0052200211B4805F047F805238A
:1036000005221949194804F0CBFD174B1B78002BF4
:1036100000F0C380144805F00AF80346DBB2013B12
:10362000DAB2104B9A710F4B9B79022B02D10D4BE2
:1036300001229A710B4B9B79002B02D1094B00227E
:103640009A71034B00221A60024B64221A70A4E0A4
:103650009C0200202C020020040000209802002080
:1036600000000020500300208C030020B404002040
:1036700005220021884805F009F80523052286491E
:10368000864804F08DFD844B1B78002B00F087806A
:10369000814804F0CCFF03469BB21A4692001344C3
:1036A0001A4691001A460B4613449B009AB27C4B73
:1036B0001A817C4B00221A607B4B64221A706EE0E8
:1036C00005220021744804F0E1FF05230522724918
:1036D000724804F065FD704B1B78002B61D06E487A
:1036E00004F0A5FF03469BB21A46920013441A4603
:1036F00091001A460B4613441A461201D31A9B0036
:103700009AB2674B9A81674B00221A60664B64221B
:103710001A7046E0052200215F4804F0B7FF052338
:1037200005225D495D4804F03BFD5B4B1B78002B97
:1037300039D05C4B00221A605B4B64221A7032E075
:1037400005220021544804F0A1FF05230522524917
:10375000524804F025FD504B1B78002B25D04E48D5
:1037600004F065FF03469BB21A46920013441A46C2
:1037700091001A460B4613449B009AB2484B5A815B
:10378000484B00221A60484B64221A700DE000BFBB
:103790000CE000BF0AE000BF08E000BF06E000BF89
:1037A00004E000BF02E000BF00E000BF3D4B1B682B
:1037B000002B40F04D813C4B1B78643B0F2B00F2FB
:1037C000478101A252F823F059380008513A000805
:1037D000513A0008513A0008513A0008513A00089D
:1037E000513A0008513A0008513A0008513A00088D
:1037F000513A000827380008513A000845380008B7
:10380000513A00080938000801224FF400512748B6
:1038100002F0FBFD264B02221A6000F057F9024627
:10382000244B1A6014E1224B1B68002B40F30F81DC
:1038300000224FF400511D4802F0E7FD1C4B00220E
:103840001A6004E11648FFF7ADF91B4B01221A601C
:10385000144B00221A60FBE0174B00221A60114B38
:1038600001221A60202005F081FB202005F07EFB5C
:10387000202005F07BFB202005F078FB0F4805F0A9
:10388000E5FB0F4805F05AFB054BDB78012B1BD1FC
:103890000C4805F0DBFB1AE08C030020B404002088
:1038A000500300209C0200202C0200200010014048
:1038B000100300203002002004000020F8B50008AA
:1038C00008B600081CB60008634805F0BFFB634853
:1038D00005F034FB624B5B781946624805F02EFB1D
:1038E000614805F02BFB5E4B1B79002B02D15F4832
:1038F00005F0ACFB5A4B1B79012B02D15C4805F05B
:10390000A5FB574B1B79022B02D15A4805F09EFBB1
:10391000534B1B79032B02D1574805F097FB5748AF
:1039200005F00CFB4E4B5B7919464E4805F006FB43
:10393000534805F003FB4A4B9B790133194649482C
:1039400005F0FCFA4F4805F0F9FA454B1B8918467B
:10395000FDF774F903464C491846FDF7C3F90346D1
:103960001846FCF761FD0A46014600230093134602
:103970000A46464805F0E2FA454805F067FB454827
:1039800005F0DCFA364B9B89434AA2FB03235B0913
:103990009BB21946414805F0D1FA414805F056FB63
:1039A000404805F0CBFA2E4B1B691846FDF742F94B
:1039B00003463D491846FDF795F903461846FCF7BE
:1039C00033FD0A4601460023009313460A46374852
:1039D00005F0B4FA364805F0B1FA364B1B68012BF6
:1039E00003D1354805F032FB02E01B4805F02EFB01
:1039F000324805F0A3FA324B1B68012B03D12E4845
:103A000005F024FB02E0144805F020FB2D4805F0EA
:103A100095FA134B5B891846FDF710F903461A49CE
:103A20001846FDF75FF903461846FCF7FDFC0A4609
:103A300001460023009313460A46144805F07EFA17
:103A4000134805F003FB204805F000FB00E000BF31
:103A500000BFBD4680BD00BF20B6000828B60008E4
:103A60005003002040B6000848B6000858B60008C9
:103A700060B600086CB600087CB6000888B600087E
:103A80009CB60008B0B600080AD7233CCCB60008A4
:103A9000D4B60008D8B60008F119760518B40008A5
:103AA000F0B60008F4B600086F12833A08B70008B1
:103AB00010B70008980200201CB6000824B70008C0
:103AC0000000002038B7000854B7000880B500AFE8
:103AD00000F09AFF0346184680BD000080B584B010
:103AE00000AF00F091FFF860114B5B680133BB60E1
:103AF0000F4B9B68BA68D31A7B6000F085FFF860B3
:103B00000B4B9B68BA68D31A7B60FB684FF47A72E0
:103B100002FB03F27B684FF47A7101FB03F1BB688F
:103B2000B1FBF3F3134418461037BD4680BD00BF08
:103B300010E000E080B582B000AF7860786800F0F7
:103B40006DFF00BF0837BD4680BD000098B500AFCF
:103B50003E4B40F25C421A603C4B08221A613C4BDF
:103B60001B89DAB23B4B1A70394B1B891B0A9BB27B
:103B7000DAB2384B5A70374B14229A70364B1B7896
:103B8000002B03D0334B2E22DA7002E0314B0E2291
:103B9000DA70304B00221A712E4B00225A712D4BD5
:103BA00090229A712B4B8C22DA712C4B294A27498F
:103BB0002B4801F099FD254B40F22C421A60234B13
:103BC00008221A61234B42221A70264B1B88DAB254
:103BD000204B9A70234B1B881B0A9BB2DAB21D4BF9
:103BE000DA701D4B1B78002B06D01A4BBB225A7083
:103BF000184BFE221A7117E01B4B1B881846FCF766
:103C000001FC4FF03332194BFCF790FD03460C4694
:103C100018462146FCF738FF03469BB2DAB20D4B3B
:103C20005A700C4B64221A710A4B00225A71094BCC
:103C300000229A71074B0022DA71084B054A0349AA
:103C4000074801F051FD00BF98BD00BF34030020BC
:103C500050030020700300206E0300207803002032
:103C6000E002002080030020080000203333F33FEF
:103C700080B500AF1B4B40F23C421A601A4B1B4A06
:103C800018491B4801F030FD164B40F24C421A60B7
:103C9000154B164A1349164801F026FD114B4FF4F7
:103CA0005A721A60114B03221A70104B49225A7033
:103CB0000E4B29229A700D4B1122DA700B4B002209
:103CC0001A710A4B0C225A71084B40229A71074B09
:103CD000FF22DA71044B054A0249054801F004FD50
:103CE00000BF80BD34030020780300207003002053
:103CF000E002002080B500AF40211B4802F06EFBBF
:103D00000346012B08D1FFF7E9FE0246174B1A6064
:103D1000174B01221A7024E0154B1B78DBB2002BE5
:103D20001FD0FFF7DBFE0246104B1B68D31A64223C
:103D300002FB03F30F4AA2FB03239B099BB21A4623
:103D4000920013441A461201D31ADB009AB20A4BAE
:103D50001A80FFF7BBFE0246084B1A60044B002294
:103D60001A7000BF80BD00BF00080140380200206B
:103D700048020020D34D62103C0200204402002083
:103D8000B0B500AF904BDB78012B6ED1FFF7A6FEEC
:103D900002468E4B1B68D31A8D4A934202D98D4B33
:103DA00000221A80884B9B79002B1AD1894B1B88E3
:103DB0009BB2894AA2FB03235B089BB21846FCF71F
:103DC00021FB4FF00002854BFCF786FB03460C46B7
:103DD00018462146FCF758FE03469AB2804B1A80DB
:103DE00055E07C4B1B889BB21846FCF70BFB4FF051
:103DF00000027A4BFCF770FB03460C46184621463E
:103E0000FCF742FE03469AB2754B1A80744B1B882E
:103E10001846FCF7F7FA04460D46724B1B88184605
:103E2000FCF7F0FA4FF000026C4BFCF755FB024632
:103E30000B4620462946FCF7DFFD0346002B26D023
:103E4000684B1B881846FCF7DDFA4FF00002634B05
:103E5000FCF742FB03460C4618462146FCF714FECD
:103E600003469AB25E4B1A8011E0574B9B79002BA8
:103E700009D1554B9B89584AA2FB03235B089AB290
:103E8000574B1A8003E0504B9A89554B1A804E4B82
:103E90001B79012B0CBF01230023DAB24A4B1B799B
:103EA000022B0CBF01230023DBB21343DBB2002B38
:103EB00031D0484B1B889BB21846FCF7A3FA4FF051
:103EC0000002464BFCF708FB03460C461846214609
:103ED0003BA3D3E90023FCF78FFD0346002B17D04B
:103EE0003F4B1B881846FCF78DFA4FF000023E4B03
:103EF000FCF7F2FA03460C4618462146FCF7C4FDCF
:103F000003469AB2364B1A80384B01221A6002E0FF
:103F1000364B00221A602C4B9B79012B18D1304B69
:103F20001B881846FCF76EFA314B1B881846FCF7C5
:103F300069FA4FF00002294BFCF7CEFA224B9A891E
:103F4000274B1B889A4203D21F4B9A89244B1A8015
:103F50001D4B9B79002B24D1214B1B881846FCF765
:103F600051FA234B1B881846FCF74CFA4FF000021D
:103F70001D4BFCF7B1FA1A4B1B881A46124B9B8952
:103F800019461C4B1B6891FBF3F39A4209DD0E4B5B
:103F90009B891A46174B1B6892FBF3F39AB2104B9E
:103FA0001A80094B9B79002B06D0074B9B79012B7C
:103FB00002D00B4B00221A8000BFB0BDAFF30080CF
:103FC000000000000070D74050030020380200209D
:103FD00060E316003C020020ABAAAAAA0000F83F4A
:103FE000800300203E0200200000E03F4C02002041
:103FF0004A02002008030020B0B582B000AF444B55
:1040000000221A8000237B6025E0414B1B88184664
:10401000FCF7F8F904460D463E4A7B6832F8133047
:104020001846FCF7EFF936A3D3E90023FCF754FA5E
:1040300002460B4620462946FCF798F803460C46F4
:1040400018462146FCF720FD03469AB2304B1A80F1
:104050007B6801337B607B68022BD6DD2E4B002210
:104060001A8000233B602A4B1B881846FCF7CAF9CC
:1040700025A3D3E90023FCF7BFFC0346002B34D073
:10408000264A3B6832F813301846FCF7D3FD044645
:10409000234A3B6832F813301846FCF7CBFD034641
:1040A00019462046FCF7D2FE03461846FCF7BCF939
:1040B00004460D461B4B1B881846FCF7A3F94FF02E
:1040C0003332194BFCF708FA02460B4620462946C4
:1040D000FCF702FA03460C4618462146FCF7D4FCCE
:1040E00003469AB20C4B1A8003E00B4B41F2883224
:1040F0001A8000BF0837BD46B0BD00BFAFF30080D7
:104100006655DF54FF7BC53F9A9999999999C93FA4
:104110005E020020580200204A02002050020020C7
:10412000600200200C0000203333F33F80B582B0E2
:1041300000AF0346FB80FB88402B01D1FFF7DAFD7F
:1041400000BF0837BD4680BD80B582B000AF786043
:104150007B681B68114A934214D1114B1B68012BD9
:1041600002DD0F4B00221A600D4B1B68002B02D1A1
:10417000FFF7ECFC01E0FFF77BFD094B1B68013307
:10418000074A13607B681B68064A934202D1064BBC
:1041900001221A6000BF0837BD4680BD0004004000
:1041A000A0020020000800402802002080B400AFD8
:1041B00000BFBD4680BC704780B582B000AF3B1DDC
:1041C00000210A461A800A469A7000233B601D4B64
:1041D0001D4A1A601B4B4FF0FF325A60194B4FF4C7
:1041E00080729A60174802F0BDFF0346002B01D091
:1041F000FFF7DCFF00233B7100237B710023BB71C1
:104200003B1D012219460F4803F042F80346002BDC
:1042100001D0FFF7CBFF00233B7002237B701623F6
:10422000BB702023FB703B4601221946054803F072
:10423000C7F80346002B01D0FFF7B8FF00BF0837CF
:10424000BD4680BDE00300200028004080B584B05A
:1042500000AF78607B681B680B4A934210D102F074
:10426000E7F90A4BDB69094A43F00063D361074B66
:10427000DB6903F00063FB60FB68054B01221A60F9
:1042800000BF1037BD4680BD00280040001002402E
:104290003C04424280B485B000AF154B9B69144A80
:1042A00043F001039361124B9B6903F00103BB6070
:1042B000BB680F4BDB690E4A43F08053D3610C4B54
:1042C000DB6903F080537B607B680A4B5B68FB60B3
:1042D000FB6823F0E063FB60FB6843F00073FB6066
:1042E000044AFB68536000BF1437BD4680BC70476A
:1042F000001002400000014080B400AF00BFBD4686
:1043000080BC704780B400AFFEE780B400AFFEE72A
:1043100080B400AFFEE780B400AFFEE780B400AF2A
:1043200000BFBD4680BC704780B400AF00BFBD4633
:1043300080BC704780B400AF00BFBD4680BC7047F2
:1043400080B500AF00F04EFB00BF80BD80B500AF70
:10435000402002F073F800BF80BD000080B500AFC0
:10436000024803F005FB00BF80BD00BF34040020FD
:1043700080B500AF024803F0FBFA00BF80BD00BF6C
:10438000F403002080B586B000AFF860B9607A60B1
:1043900000237B610AE0AFF300800146BB685A1C32
:1043A000BA60CAB21A707B6901337B617A697B6833
:1043B0009A42F0DB7B6818461837BD4680BD80B551
:1043C00086B000AFF860B9607A6000237B6109E0D5
:1043D000BB685A1CBA601B781846FEF7B7FC7B69AD
:1043E00001337B617A697B689A42F1DB7B6818460E
:1043F0001837BD4680BD80B483B000AF78604FF001
:10440000FF3318460C37BD4680BC704780B483B07C
:1044100000AF786039603B684FF400525A60002367
:1044200018460C37BD4680BC704780B483B000AFDF
:104430007860012318460C37BD4680BC704780B4B5
:1044400085B000AFF860B9607A6000231846143771
:10445000BD4680BC7047000080B584B000AF786076
:10446000114B1B68002B02D10F4B104A1A600E4BE8
:104470001B68FB600C4B1A687B6813446A469342C6
:1044800007D904F0D9F802460C2313604FF0FF332C
:1044900006E0054B1A687B681344034A1360FB6807
:1044A00018461037BD4680BDA402002090070020AA
:1044B00080B400AF154B1B68144A43F0010313602E
:1044C000124B5A681149124B13404B600F4B1B683B
:1044D0000E4A23F0847323F4803313600B4B1B6864
:1044E0000A4A23F480231360084B5B68074A23F4CD
:1044F000FE035360054B4FF41F029A60054B4FF0CB
:1045000000629A6000BFBD4680BC70470010024048
:104510000000FFF800ED00E080B586B000AF07F1C5
:10452000080300221A605A609A60DA603B46002253
:104530001A605A601D4B1E4A1A601C4B40F28722BB
:104540005A601A4B00229A60184B42F20F72DA60DE
:10455000164B00221A61154B00229A61134803F092
:104560008FF90346002B01D0FFF720FE4FF4805354
:10457000BB6007F1080319460C4803F001FB034632
:10458000002B01D0FFF712FE00233B6000237B606D
:104590003B461946054803F0C7FC0346002B01D0F3
:1045A000FFF704FE00BF1837BD4680BD340400206D
:1045B0000004004080B586B000AF07F10803002278
:1045C0001A605A609A60DA603B4600221A605A60AC
:1045D0001D4B1E4A1A601C4B41F61F425A601A4B73
:1045E00000229A60184B42F20F72DA60164B0022DA
:1045F0001A61154B00229A61134803F041F90346F2
:10460000002B01D0FFF7D2FD4FF48053BB6007F1C0
:10461000080319460C4803F0B3FA0346002B01D0F7
:10462000FFF7C4FD00233B6000237B603B46194637
:10463000054803F079FC0346002B01D0FFF7B6FDD7
:1046400000BF1837BD4680BDF403002000080040BD
:1046500080B584B000AF78607B681B681A4A9342CB
:1046600014D11A4BDB69194A43F00203D361174B8B
:10467000DB6903F00203FB60FB68002200211D20C0
:1046800001F01BFB1D2001F034FB18E07B681B6868
:104690000F4A934213D10D4BDB690C4A43F00403DC
:1046A000D3610A4BDB6903F00403BB60BB680022E3
:1046B00000211E2001F001FB1E2001F01AFB00BFAB
:1046C0001037BD4680BD00BF00040040001002400E
:1046D0000008004080B500AF114B124A1A60104B21
:1046E0004FF4E1325A600E4B00229A600C4B0022CC
:1046F000DA600B4B00221A61094B0C225A61084BFD
:1047000000229A61064B0022DA61054803F062FC40
:104710000346002B01D0FFF749FD00BF80BD00BF5D
:10472000B40400200038014080B500AF114B124A9C
:104730001A60104B4FF496425A600E4B00229A605A
:104740000C4B0022DA600B4B00221A61094B0C2241
:104750005A61084B00229A61064B0022DA61054833
:1047600003F038FC0346002B01D0FFF71FFD00BF0C
:1047700080BD00BF740400200048004080B58AB0AE
:1047800000AF786007F1180300221A605A609A603F
:10479000DA607B681B68384A934232D1374B9B6999
:1047A000364A43F480439361344B9B6903F480435E
:1047B0007B617B69314B9B69304A43F00403936111
:1047C0002E4B9B6903F004033B613B694FF400737C
:1047D000BB610223FB6103237B6207F118031946C7
:1047E000274801F0A1FC4FF48063BB610023FB610B
:1047F00000233B6207F118031946214801F094FC9D
:1048000036E07B681B681F4A934231D11B4BDB6942
:104810001A4A43F48023D361184BDB6903F48023E5
:10482000FB60FB68154B9B69144A43F008039361D6
:10483000124B9B6903F00803BB60BB684FF48063B5
:10484000BB610223FB6103237B6207F11803194656
:104850000D4801F069FC4FF40063BB610023FB616C
:1048600000233B6207F118031946074801F05CFC7E
:1048700000BF2837BD4680BD00380140001002400F
:104880000008014000480040000C014080B500AF26
:104890000D4B0E4A1A600C4B08225A600A4B02223A
:1048A0009A60094B00229A61074B0022DA61064B9D
:1048B00000221A62044801F0D9FD0346002B01D002
:1048C000FFF774FC00BF80BDF4040020005C0040D2
:1048D00080B485B000AF78607B681B68094A93425A
:1048E0000BD1094BDB69084A43F40003D361064B43
:1048F000DB6903F40003FB60FB6800BF1437BD46AF
:1049000080BC7047005C004000100240002103E0C2
:104910000B4B5B58435004310A480B4B42189A42E8
:10492000F6D30A4A02E0002342F8043B084B9A42BD
:10493000F9D3FFF7BDFD03F085FEFDF767F970477A
:1049400078BA0008000000200802002008020020B9
:104950008C070020FEE7000080B500AF084B1B6805
:10496000074A43F010031360032001F09BF9002075
:1049700000F008F8FFF78EFC0023184680BD00BF4A
:104980000020024080B582B000AF7860124B1A68F8
:10499000124B1B7819464FF47A73B3FBF1F3B2FB59
:1049A000F3F3184601F0B3F90346002B01D00123BD
:1049B0000EE07B680F2B0AD8002279684FF0FF3099
:1049C00001F07BF9064A7B681360002300E00123B5
:1049D00018460837BD4680BD2C000020340000205A
:1049E0003000002080B400AF054B1B781A46054B01
:1049F0001B681344034A136000BFBD4680BC704768
:104A0000340000206007002080B400AF024B1B6818
:104A10001846BD4680BC70476007002080B584B052
:104A200000AF7860FFF7F0FFB8607B68FB60FB6861
:104A3000B3F1FF3F05D0094B1B781A46FB681344BE
:104A4000FB6000BFFFF7E0FF0246BB68D31AFA68BD
:104A50009A42F7D800BF1037BD4680BD3400002011
:104A600080B586B000AF78600023FB7500233B6102
:104A70000023BB600023FB607B68002B01D1012376
:104A8000BEE07B689B68002B7B689B6A002B09D18A
:104A90007B680022DA627B68002283F82420786831
:104AA000FCF724FB786800F0DDFB0346FB757B68B0
:104AB0009B6A03F01003002B40F09980FB7D002BD4
:104AC00040F095807B689B6A23F4885323F00203AF
:104AD00043F002027B689A627B685A687B68DB69F4
:104AE0001A437B681B7B5B001343BA681343BB60AC
:104AF0007B689B68B3F5807F03D07B689B68012B44
:104B000002D14FF4807300E000233A6913433B6104
:104B10007B681B7D012B19D17B681B7B002B09D186
:104B20007B689B69013B5A033B69134343F4006371
:104B30003B610BE07B689B6A43F020027B689A62D2
:104B40007B68DB6A43F001027B68DA627B681B6882
:104B50005B6823F469417B681B683A690A435A60C1
:104B60007B681B689A68284B13407A681268B9689A
:104B70000B4393607B689B68B3F5807F03D07B68B1
:104B80009B68012B04D17B681B69013B1B05FB6003
:104B90007B681B68DB6A23F470017B681B68FA681A
:104BA0000A43DA627B681B689A68184B1340BA683C
:104BB0009A420BD17B680022DA627B689B6A23F001
:104BC000030343F001027B689A6218E07B689B6AEA
:104BD00023F0120343F010027B689A627B68DB6A61
:104BE00043F001027B68DA620123FB7507E07B6812
:104BF0009B6A43F010027B689A620123FB75FB7D80
:104C000018461837BD4680BDFDF7E1FFFE0E1FFFB9
:104C100080B584B000AF78600023FB737B6893F8A5
:104C20002430012B01D1022398E07B68012283F814
:104C30002420786800F0C4FA0346FB73FB7B002B4A
:104C400040F087807B689B6A23F4407323F0010364
:104C500043F480727B689A627B681B68414A934286
:104C600005D1414B5B6803F47023002B15D17B68A1
:104C70009B6A23F480127B689A627B681B685B687E
:104C800003F48063002B26D07B689B6A23F4405397
:104C900043F480527B689A621DE07B689B6A43F410
:104CA00080127B689A627B681B682F4A934204D00B
:104CB0007B681B682B4A93420DD12B4B5B6803F436
:104CC0008063002B07D07B689B6A23F4405343F436
:104CD00080527B689A627B689B6A03F48053002B46
:104CE00006D07B68DB6A23F006027B68DA6202E0AA
:104CF0007B680022DA627B68002283F824207B68CC
:104D00001B686FF002021A607B681B689B6803F4E3
:104D10006023B3F5602F13D17B681B68114A93425F
:104D200005D1114B5B6803F47023002B08D17B681D
:104D30001B689A687B681B6842F4A0029A600CE0CA
:104D40007B681B689A687B681B6842F480129A60D3
:104D500003E07B68002283F82420FB7B1846103791
:104D6000BD4680BD002801400024014080B584B0CC
:104D700000AF78600023FB737B6893F82430012B2D
:104D800001D102231AE07B68012283F8242078688D
:104D900000F068FA0346FB73FB7B002B09D17B68AC
:104DA0009B6A23F4885323F0010343F001027B68DC
:104DB0009A627B68002283F82420FB7B1846103718
:104DC000BD4680BD90B587B000AF786039600023E4
:104DD0007B610023FB6000233B61FFF715FE7861D8
:104DE0007B681B689B6803F48073002B0BD07B6887
:104DF0009B6A43F020027B689A627B68002283F8FA
:104E000024200123C8E07B681B685B6803F480737F
:104E1000002B2AD17B681B68DB6A03F47003002B2C
:104E200023D11AE03B68B3F1FF3F16D03B68002B5B
:104E300007D0FFF7E9FD02467B69D31A3A689A4228
:104E40000BD27B689B6A43F004027B689A627B68A2
:104E5000002283F8242003239EE07B681B681B68E4
:104E600003F00203002BDDD06CE04D4B1C680220E8
:104E700002F0BCF80346B4FBF3F27B681B681969C7
:104E8000484B0B40002B18D17B681B68D968464BF8
:104E90000B40002B11D17B681B681969434B0B40F9
:104EA000002B08D17B681B68D968414B0B40002B55
:104EB00001D1142320E029231EE07B681B681969B7
:104EC0003A4B0B40002B06D17B681B68D968384BE6
:104ED0000B40002B0DD07B681B681969354B0B40CC
:104EE000002B08D17B681B68D968324B0B40002B24
:104EF00001D1542300E0FC2302FB03F33B611DE0DE
:104F00003B68B3F1FF3F16D03B68002B07D0FFF79B
:104F10007BFD02467B69D31A3A689A420BD27B68C2
:104F20009B6A43F004027B689A627B68002283F8E4
:104F30002420032330E0FB680133FB60FB683A69FF
:104F40009A42DDD87B681B686FF012021A607B689A
:104F50009B6A43F400727B689A627B681B689B685B
:104F600003F46023B3F5602F15D17B681B7B002B06
:104F700011D17B689B6A23F480727B689A627B689C
:104F80009B6A03F48053002B05D17B689B6A43F036
:104F900001027B689A62002318461C37BD4690BD0B
:104FA0002C00002024499224244992009224491282
:104FB000922449004992240080B483B000AF786005
:104FC0007B681B68DB6C18460C37BD4680BC70479D
:104FD00080B485B000AF786039600023FB73002394
:104FE000BB607B6893F82430012B01D10223DCE005
:104FF0007B68012283F824203B685B68062B1CD861
:105000007B681B68596B3B685A6813469B001344C6
:10501000053B1F2202FA03F3DB4319403B68186883
:105020003B685A6813469B001344053B00FA03F2A1
:105030007B681B680A435A633CE03B685B680C2B47
:105040001CD87B681B68196B3B685A6813469B0029
:105050001344233B1F2202FA03F3DB4319403B684E
:1050600018683B685A6813469B001344233B00FAB8
:1050700003F27B681B680A431A631BE07B681B68AA
:10508000D96A3B685A6813469B001344413B1F2270
:1050900002FA03F3DB4319403B6818683B685A681F
:1050A00013469B001344413B00FA03F27B681B68E4
:1050B0000A43DA623B681B68092B1CD97B681B68B2
:1050C000D9683B681A6813465B0013441E3B0722ED
:1050D00002FA03F3DB4319403B6898683B681A689F
:1050E00013465B0013441E3B00FA03F27B681B6807
:1050F0000A43DA6019E07B681B6819693B681A6823
:1051000013465B001344072202FA03F3DB43194002
:105110003B6898683B681A6813465B00134400FAC2
:1051200003F27B681B680A431A613B681B68102BFB
:1051300003D03B681B68112B32D17B681B681D4A6A
:10514000934225D17B681B689B6803F40003002B06
:1051500026D17B681B689A687B681B6842F4000252
:105160009A603B681B68102B1AD1134B1B68134ABB
:10517000A2FB03239A0C13469B0013445B00BB6005
:1051800002E0BB68013BBB60BB68002BF9D107E0C4
:105190007B689B6A43F020027B689A620123FB7361
:1051A0007B68002283F82420FB7B18461437BD4619
:1051B00080BC7047002401402C00002083DE1B438C
:1051C00080B584B000AF78600023FB600023BB6033
:1051D0007B681B689B6803F00103012B39D07B6857
:1051E0001B689A687B681B6842F001029A601B4B3F
:1051F0001B681B4AA2FB03239B0CBB6002E0BB683D
:10520000013BBB60BB68002BF9D1FFF7FDFBF860E9
:1052100018E0FFF7F9FB0246FB68D31A022B11D9FD
:105220007B689B6A43F010027B689A627B68DB6A4A
:1052300043F001027B68DA627B68002283F8242055
:10524000012307E07B681B689B6803F00103012BC7
:10525000DFD1002318461037BD4680BD2C0000204A
:1052600083DE1B4380B584B000AF78600023FB6011
:105270007B681B689B6803F00103012B27D17B68C7
:105280001B689A687B681B6822F001029A60FFF72E
:10529000BBFBF86014E0FFF7B7FB0246FB68D31ACC
:1052A000022B0DD97B689B6A43F010027B689A62DF
:1052B0007B68DB6A43F001027B68DA62012307E066
:1052C0007B681B689B6803F00103012BE3D000237C
:1052D00018461037BD4680BD80B584B000AF7860F9
:1052E0007B68002B01D10123EDE07B6893F820302F
:1052F000DBB2002B02D17868FBF76AFF7B681B6882
:105300001A687B681B6822F002021A60FFF77CFBB8
:10531000F86012E0FFF778FB0246FB68D31A0A2B0D
:105320000BD97B685B6A43F400327B685A627B6806
:10533000052283F820200123C5E07B681B685B6899
:1053400003F00203002BE5D17B681B681A687B68B9
:105350001B6842F001021A60FFF756FBF86012E08A
:10536000FFF752FB0246FB68D31A0A2B0BD97B6866
:105370005B6A43F400327B685A627B68052283F8DB
:10538000202001239FE07B681B685B6803F001031A
:10539000002BE5D07B681B7E012B08D17B681B6846
:1053A0001A687B681B6842F080021A6007E07B681D
:1053B0001B681A687B681B6822F080021A607B6891
:1053C0005B7E012B08D17B681B681A687B681B68B1
:1053D00042F040021A6007E07B681B681A687B682D
:1053E0001B6822F040021A607B689B7E012B08D16B
:1053F0007B681B681A687B681B6842F020021A6091
:1054000007E07B681B681A687B681B6822F0200233
:105410001A607B68DB7E012B08D17B681B681A68E9
:105420007B681B6822F010021A6007E07B681B682B
:105430001A687B681B6842F010021A607B681B7F49
:10544000012B08D17B681B681A687B681B6842F0D7
:1054500008021A6007E07B681B681A687B681B6893
:1054600022F008021A607B685B7F012B08D17B6801
:105470001B681A687B681B6842F004021A6007E028
:105480007B681B681A687B681B6822F004021A603C
:105490007B689A687B68DB681A437B681B691A43E0
:1054A0007B685B6942EA03017B685B685A1E7B6824
:1054B0001B680A43DA617B6800225A627B6801221A
:1054C00083F82020002318461037BD4680BD80B4E5
:1054D00087B000AF786039607B681B687B617B6850
:1054E00093F82030FB74FB7C012B03D0FB7C022B58
:1054F00040F0AA807B69D3F8003243F001027B6957
:10550000C3F800223B685B6903F01F03012202FA23
:1055100003F3FB607B69D3F81C22FB68DB431A4072
:105520007B69C3F81C223B68DB69002B23D17B69B4
:10553000D3F80C22FB68DB431A407B69C3F80C22CA
:105540003B68DB6819043B685B689BB23A68526948
:1055500019437B69483243F832103B689B68190451
:105560003B681B689AB23B685B690A4379694833B8
:10557000DB000B445A603B68DB69012B22D17B695D
:10558000D3F80C22FB681A437B69C3F80C223B68F2
:105590001B6819043B685B689BB23A6852691943FF
:1055A0007B69483243F832103B689B6819043B68BA
:1055B000DB689AB23B685B690A4379694833DB0070
:1055C0000B445A603B689B69002B09D17B69D3F877
:1055D0000422FB68DB431A407B69C3F8042207E01E
:1055E0007B69D3F80422FB681A437B69C3F8042261
:1055F0003B681B69002B09D17B69D3F81422FB6837
:10560000DB431A407B69C3F8142207E07B69D3F8B7
:105610001422FB681A437B69C3F814223B681B6A97
:10562000012B07D17B69D3F81C22FB681A437B69E5
:10563000C3F81C227B69D3F8003223F001027B6996
:10564000C3F80022002306E07B685B6A43F48022F3
:105650007B685A62012318461C37BD4680BC7047E0
:1056600080B584B000AF78607B6893F82030DBB2FF
:10567000012B2ED17B68022283F820207B681B68D7
:105680001A687B681B6822F001021A60FFF7BCF9F8
:10569000F86012E0FFF7B8F90246FB68D31A0A2B4C
:1056A0000BD97B685B6A43F400327B685A627B6883
:1056B000052283F82020012312E07B681B685B68C9
:1056C00003F00103002BE5D17B6800225A6200231E
:1056D00006E07B685B6A43F400227B685A62012320
:1056E00018461037BD4680BD80B489B000AFF86061
:1056F000B9607A603B60FB6893F82030FB77FB6809
:105700001B689B68BB61FB7F012B03D0FB7F022BD7
:1057100040F0B880BB6903F08063002B0AD1BB69FD
:1057200003F00063002B05D1BB6903F08053002B0D
:1057300000F0A080BB691B0E03F003037B617B6953
:10574000022B07D9FB685B6A43F40002FB685A62CC
:1057500001239EE001227B699A403B681A60BB6886
:105760009B68002B0DD1BB681B685A05BB68DB68C2
:10577000F96809681A437B6918331B010B441A60E6
:105780000FE0BB685B68DA00BB689B681A43BB68C4
:10579000DB68F96809681A437B6918331B010B44FD
:1057A0001A60FB681968BB681A697B6918331B01AA
:1057B0000B4404331A60BB681B7D012B11D1FB68BD
:1057C0001A687B6918331B01134404331B68FA6899
:1057D000116843F480727B6918331B010B44043356
:1057E0001A607B6807331B781A067B6806331B78C0
:1057F0001B041A437B6805331B781B0213437A682A
:10580000043212781046FA68116843EA00027B6994
:105810001B010B4403F5C6731A607B6803331B78C6
:105820001A067B6802331B781B041A437B6801331A
:105830001B781B0213437A6812781046FA681168C5
:1058400043EA00027B691B010B4403F5C4731A6031
:10585000FB681A687B6918331B0113441B68FA68DC
:10586000116843F001027B6918331B010B441A6075
:1058700000230EE0FB685B6A43F40012FB685A6287
:10588000012306E0FB685B6A43F48022FB685A62EE
:10589000012318462437BD4680BC704780B487B0CA
:1058A00000AFF860B9607A603B60FB6893F8203025
:1058B000FB75FB7D012B03D0FB7D022B40F0F380B9
:1058C000BB68002B0ED1FB681B68DB6803F0030389
:1058D000002B16D1FB685B6A43F40012FB685A6226
:1058E0000123E7E0FB681B681B6903F00303002B3F
:1058F00007D1FB685B6A43F40012FB685A6201231C
:10590000D8E0FB681A68BB681B331B0113441B6893
:1059100003F004027B689A607B689B68002B0CD1C3
:10592000FB681A68BB681B331B0113441B685B0DC3
:10593000C3F30A027B681A600BE0FB681A68BB6855
:105940001B331B0113441B68DB0823F060427B6898
:105950005A60FB681A68BB681B331B0113441B6841
:1059600003F002027B68DA60FB681A68BB681B33CD
:105970001B01134404331B6803F00F027B681A6198
:10598000FB681A68BB681B331B01134404331B6894
:105990001B0ADAB27B689A61FB681A68BB681B3322
:1059A0001B01134404331B681B0C9AB27B685A61B9
:1059B000FB681A68BB681B01134403F5DC731B68A2
:1059C000DAB23B681A70FB681A68BB681B011344A3
:1059D00003F5DC731B681A0A3B680133D2B21A70F4
:1059E000FB681A68BB681B01134403F5DC731B6872
:1059F0001A0C3B680233D2B21A70FB681A68BB6893
:105A00001B01134403F5DC731B681A0E3B68033358
:105A1000D2B21A70FB681A68BB681B01134403F505
:105A2000DE731A683B680433D2B21A70FB681A68D6
:105A3000BB681B01134403F5DE731B681A0A3B683D
:105A40000533D2B21A70FB681A68BB681B01134495
:105A500003F5DE731B681A0C3B680633D2B21A706A
:105A6000FB681A68BB681B01134403F5DE731B68EF
:105A70001A0E3B680733D2B21A70BB68002B08D1EC
:105A8000FB681B68DA68FB681B6842F02002DA607A
:105A900007E0FB681B681A69FB681B6842F020027C
:105AA0001A61002306E0FB685B6A43F48022FB680E
:105AB0005A62012318461C37BD4680BC704780B42B
:105AC00085B000AF786039600023FB607B6893F895
:105AD0002030FB72FB7A012B02D0FB7A022B0FD114
